{
  "contractName": "Fundraising",
  "abi": [
    {
      "constant": true,
      "inputs": [],
      "name": "name",
      "outputs": [
        {
          "name": "",
          "type": "string"
        }
      ],
      "payable": false,
      "stateMutability": "view",
      "type": "function",
      "signature": "0x06fdde03"
    },
    {
      "constant": true,
      "inputs": [
        {
          "name": "",
          "type": "uint256"
        }
      ],
      "name": "projects",
      "outputs": [
        {
          "name": "id",
          "type": "uint256"
        },
        {
          "name": "title",
          "type": "string"
        },
        {
          "name": "excerpt",
          "type": "string"
        },
        {
          "name": "body",
          "type": "string"
        },
        {
          "name": "category",
          "type": "uint8"
        },
        {
          "name": "creator",
          "type": "address"
        },
        {
          "name": "targetAmount",
          "type": "uint256"
        },
        {
          "name": "amountRaised",
          "type": "uint256"
        }
      ],
      "payable": false,
      "stateMutability": "view",
      "type": "function",
      "signature": "0x107046bd"
    },
    {
      "constant": true,
      "inputs": [],
      "name": "projectNum",
      "outputs": [
        {
          "name": "",
          "type": "uint256"
        }
      ],
      "payable": false,
      "stateMutability": "view",
      "type": "function",
      "signature": "0xa0b5d6c8"
    },
    {
      "inputs": [],
      "payable": false,
      "stateMutability": "nonpayable",
      "type": "constructor",
      "signature": "constructor"
    },
    {
      "anonymous": false,
      "inputs": [
        {
          "indexed": false,
          "name": "id",
          "type": "uint256"
        },
        {
          "indexed": false,
          "name": "title",
          "type": "string"
        },
        {
          "indexed": false,
          "name": "excerpt",
          "type": "string"
        },
        {
          "indexed": false,
          "name": "body",
          "type": "string"
        },
        {
          "indexed": false,
          "name": "category",
          "type": "uint8"
        },
        {
          "indexed": false,
          "name": "creator",
          "type": "address"
        },
        {
          "indexed": false,
          "name": "targetAmount",
          "type": "uint256"
        },
        {
          "indexed": false,
          "name": "amountRaised",
          "type": "uint256"
        }
      ],
      "name": "projectCreated",
      "type": "event",
      "signature": "0xf8086778da7d6e8b1708f9480f763bd20041b88cd71555f4bccaea93824a8495"
    },
    {
      "anonymous": false,
      "inputs": [
        {
          "indexed": false,
          "name": "id",
          "type": "uint256"
        },
        {
          "indexed": false,
          "name": "title",
          "type": "string"
        },
        {
          "indexed": false,
          "name": "excerpt",
          "type": "string"
        },
        {
          "indexed": false,
          "name": "body",
          "type": "string"
        },
        {
          "indexed": false,
          "name": "category",
          "type": "uint8"
        },
        {
          "indexed": false,
          "name": "creator",
          "type": "address"
        },
        {
          "indexed": false,
          "name": "targetAmount",
          "type": "uint256"
        },
        {
          "indexed": false,
          "name": "amountRaised",
          "type": "uint256"
        }
      ],
      "name": "projectDonated",
      "type": "event",
      "signature": "0x31d995787c3c0dce4ea21ee4836ac88aa1c48c5e70f0c9477d27971d3a827e71"
    },
    {
      "anonymous": false,
      "inputs": [
        {
          "indexed": false,
          "name": "id",
          "type": "uint256"
        },
        {
          "indexed": false,
          "name": "title",
          "type": "string"
        },
        {
          "indexed": false,
          "name": "excerpt",
          "type": "string"
        },
        {
          "indexed": false,
          "name": "body",
          "type": "string"
        },
        {
          "indexed": false,
          "name": "category",
          "type": "uint8"
        },
        {
          "indexed": false,
          "name": "creator",
          "type": "address"
        },
        {
          "indexed": false,
          "name": "targetAmount",
          "type": "uint256"
        },
        {
          "indexed": false,
          "name": "amountRaised",
          "type": "uint256"
        }
      ],
      "name": "projectDeleted",
      "type": "event",
      "signature": "0x12e0bca598a9f64a3d3d69b448baeb169d469b4e7745cf58b46019b5fa4634b1"
    },
    {
      "constant": false,
      "inputs": [
        {
          "name": "_title",
          "type": "string"
        },
        {
          "name": "_excerpt",
          "type": "string"
        },
        {
          "name": "_body",
          "type": "string"
        },
        {
          "name": "_category",
          "type": "uint8"
        },
        {
          "name": "_targetAmount",
          "type": "uint256"
        }
      ],
      "name": "createProject",
      "outputs": [],
      "payable": false,
      "stateMutability": "nonpayable",
      "type": "function",
      "signature": "0xfb27426c"
    },
    {
      "constant": false,
      "inputs": [
        {
          "name": "_id",
          "type": "uint256"
        }
      ],
      "name": "donateProject",
      "outputs": [],
      "payable": true,
      "stateMutability": "payable",
      "type": "function",
      "signature": "0x85fbf22e"
    },
    {
      "constant": false,
      "inputs": [
        {
          "name": "_id",
          "type": "uint256"
        }
      ],
      "name": "deleteProject",
      "outputs": [],
      "payable": false,
      "stateMutability": "nonpayable",
      "type": "function",
      "signature": "0x4cd0cb28"
    }
  ],
  "bytecode": "0x608060405260006001553480156200001657600080fd5b506040805190810160405280601981526020017f46756e6472616973696e6720696e20426c6f636b636861696e0000000000000081525060009080519060200190620000649291906200006b565b506200011a565b828054600181600116156101000203166002900490600052602060002090601f016020900481019282601f10620000ae57805160ff1916838001178555620000df565b82800160010185558215620000df579182015b82811115620000de578251825591602001919060010190620000c1565b5b509050620000ee9190620000f2565b5090565b6200011791905b8082111562000113576000816000905550600101620000f9565b5090565b90565b611a70806200012a6000396000f3fe608060405260043610610078576000357c0100000000000000000000000000000000000000000000000000000000900463ffffffff16806306fdde031461007d578063107046bd1461010d5780634cd0cb28146102f657806385fbf22e14610331578063a0b5d6c81461035f578063fb27426c1461038a575b600080fd5b34801561008957600080fd5b50610092610597565b6040518080602001828103825283818151815260200191508051906020019080838360005b838110156100d25780820151818401526020810190506100b7565b50505050905090810190601f1680156100ff5780820380516001836020036101000a031916815260200191505b509250505060405180910390f35b34801561011957600080fd5b506101466004803603602081101561013057600080fd5b8101908080359060200190929190505050610635565b6040518089815260200180602001806020018060200188600581111561016857fe5b60ff1681526020018773ffffffffffffffffffffffffffffffffffffffff1673ffffffffffffffffffffffffffffffffffffffff16815260200186815260200185815260200184810384528b818151815260200191508051906020019080838360005b838110156101e65780820151818401526020810190506101cb565b50505050905090810190601f1680156102135780820380516001836020036101000a031916815260200191505b5084810383528a818151815260200191508051906020019080838360005b8381101561024c578082015181840152602081019050610231565b50505050905090810190601f1680156102795780820380516001836020036101000a031916815260200191505b50848103825289818151815260200191508051906020019080838360005b838110156102b2578082015181840152602081019050610297565b50505050905090810190601f1680156102df5780820380516001836020036101000a031916815260200191505b509b50505050505050505050505060405180910390f35b34801561030257600080fd5b5061032f6004803603602081101561031957600080fd5b8101908080359060200190929190505050610872565b005b61035d6004803603602081101561034757600080fd5b8101908080359060200190929190505050610e3d565b005b34801561036b57600080fd5b506103746114c9565b6040518082815260200191505060405180910390f35b34801561039657600080fd5b50610595600480360360a08110156103ad57600080fd5b81019080803590602001906401000000008111156103ca57600080fd5b8201836020820111156103dc57600080fd5b803590602001918460018302840111640100000000831117156103fe57600080fd5b91908080601f016020809104026020016040519081016040528093929190818152602001838380828437600081840152601f19601f8201169050808301925050505050505091929192908035906020019064010000000081111561046157600080fd5b82018360208201111561047357600080fd5b8035906020019184600183028401116401000000008311171561049557600080fd5b91908080601f016020809104026020016040519081016040528093929190818152602001838380828437600081840152601f19601f820116905080830192505050505050509192919290803590602001906401000000008111156104f857600080fd5b82018360208201111561050a57600080fd5b8035906020019184600183028401116401000000008311171561052c57600080fd5b91908080601f016020809104026020016040519081016040528093929190818152602001838380828437600081840152601f19601f820116905080830192505050505050509192919290803560ff169060200190929190803590602001909291905050506114cf565b005b60008054600181600116156101000203166002900480601f01602080910402602001604051908101604052809291908181526020018280546001816001161561010002031660029004801561062d5780601f106106025761010080835404028352916020019161062d565b820191906000526020600020905b81548152906001019060200180831161061057829003601f168201915b505050505081565b6002602052806000526040600020600091509050806000015490806001018054600181600116156101000203166002900480601f0160208091040260200160405190810160405280929190818152602001828054600181600116156101000203166002900480156106e75780601f106106bc576101008083540402835291602001916106e7565b820191906000526020600020905b8154815290600101906020018083116106ca57829003601f168201915b505050505090806002018054600181600116156101000203166002900480601f0160208091040260200160405190810160405280929190818152602001828054600181600116156101000203166002900480156107855780601f1061075a57610100808354040283529160200191610785565b820191906000526020600020905b81548152906001019060200180831161076857829003601f168201915b505050505090806003018054600181600116156101000203166002900480601f0160208091040260200160405190810160405280929190818152602001828054600181600116156101000203166002900480156108235780601f106107f857610100808354040283529160200191610823565b820191906000526020600020905b81548152906001019060200180831161080657829003601f168201915b5050505050908060040160009054906101000a900460ff16908060040160019054906101000a900473ffffffffffffffffffffffffffffffffffffffff16908060050154908060060154905088565b61087a6118f0565b60026000838152602001908152602001600020610100604051908101604052908160008201548152602001600182018054600181600116156101000203166002900480601f01602080910402602001604051908101604052809291908181526020018280546001816001161561010002031660029004801561093d5780601f106109125761010080835404028352916020019161093d565b820191906000526020600020905b81548152906001019060200180831161092057829003601f168201915b50505050508152602001600282018054600181600116156101000203166002900480601f0160208091040260200160405190810160405280929190818152602001828054600181600116156101000203166002900480156109df5780601f106109b4576101008083540402835291602001916109df565b820191906000526020600020905b8154815290600101906020018083116109c257829003601f168201915b50505050508152602001600382018054600181600116156101000203166002900480601f016020809104026020016040519081016040528092919081815260200182805460018160011615610100020316600290048015610a815780601f10610a5657610100808354040283529160200191610a81565b820191906000526020600020905b815481529060010190602001808311610a6457829003601f168201915b505050505081526020016004820160009054906101000a900460ff166005811115610aa857fe5b6005811115610ab357fe5b81526020016004820160019054906101000a900473ffffffffffffffffffffffffffffffffffffffff1673ffffffffffffffffffffffffffffffffffffffff1673ffffffffffffffffffffffffffffffffffffffff16815260200160058201548152602001600682015481525050905060008160a00151905060008260000151118015610b465750600154826000015111155b1515610b5157600080fd5b3373ffffffffffffffffffffffffffffffffffffffff168173ffffffffffffffffffffffffffffffffffffffff16141515610b8b57600080fd5b60148260c00151811515610b9b57fe5b048260e00151101515610bad57600080fd5b60026000848152602001908152602001600020600080820160009055600182016000610bd99190611957565b600282016000610be99190611957565b600382016000610bf99190611957565b6004820160006101000a81549060ff02191690556004820160016101000a81549073ffffffffffffffffffffffffffffffffffffffff02191690556005820160009055600682016000905550507f12e0bca598a9f64a3d3d69b448baeb169d469b4e7745cf58b46019b5fa4634b16001548360200151846040015185606001518660800151868860c001518960e0015160405180898152602001806020018060200180602001886005811115610cab57fe5b60ff1681526020018773ffffffffffffffffffffffffffffffffffffffff1673ffffffffffffffffffffffffffffffffffffffff16815260200186815260200185815260200184810384528b818151815260200191508051906020019080838360005b83811015610d29578082015181840152602081019050610d0e565b50505050905090810190601f168015610d565780820380516001836020036101000a031916815260200191505b5084810383528a818151815260200191508051906020019080838360005b83811015610d8f578082015181840152602081019050610d74565b50505050905090810190601f168015610dbc5780820380516001836020036101000a031916815260200191505b50848103825289818151815260200191508051906020019080838360005b83811015610df5578082015181840152602081019050610dda565b50505050905090810190601f168015610e225780820380516001836020036101000a031916815260200191505b509b50505050505050505050505060405180910390a1505050565b610e456118f0565b60026000838152602001908152602001600020610100604051908101604052908160008201548152602001600182018054600181600116156101000203166002900480601f016020809104026020016040519081016040528092919081815260200182805460018160011615610100020316600290048015610f085780601f10610edd57610100808354040283529160200191610f08565b820191906000526020600020905b815481529060010190602001808311610eeb57829003601f168201915b50505050508152602001600282018054600181600116156101000203166002900480601f016020809104026020016040519081016040528092919081815260200182805460018160011615610100020316600290048015610faa5780601f10610f7f57610100808354040283529160200191610faa565b820191906000526020600020905b815481529060010190602001808311610f8d57829003601f168201915b50505050508152602001600382018054600181600116156101000203166002900480601f01602080910402602001604051908101604052809291908181526020018280546001816001161561010002031660029004801561104c5780601f106110215761010080835404028352916020019161104c565b820191906000526020600020905b81548152906001019060200180831161102f57829003601f168201915b505050505081526020016004820160009054906101000a900460ff16600581111561107357fe5b600581111561107e57fe5b81526020016004820160019054906101000a900473ffffffffffffffffffffffffffffffffffffffff1673ffffffffffffffffffffffffffffffffffffffff1673ffffffffffffffffffffffffffffffffffffffff16815260200160058201548152602001600682015481525050905060008160a001519050600082600001511180156111115750600154826000015111155b151561111c57600080fd5b3373ffffffffffffffffffffffffffffffffffffffff168173ffffffffffffffffffffffffffffffffffffffff161415151561115757600080fd5b60003411151561116657600080fd5b8160c001518260e0015134011115151561117f57600080fd5b348260e001818151019150818152505081600260008581526020019081526020016000206000820151816000015560208201518160010190805190602001906111c992919061199f565b5060408201518160020190805190602001906111e692919061199f565b50606082015181600301908051906020019061120392919061199f565b5060808201518160040160006101000a81548160ff0219169083600581111561122857fe5b021790555060a08201518160040160016101000a81548173ffffffffffffffffffffffffffffffffffffffff021916908373ffffffffffffffffffffffffffffffffffffffff16021790555060c0820151816005015560e082015181600601559050508073ffffffffffffffffffffffffffffffffffffffff166108fc349081150290604051600060405180830381858888f193505050501580156112d1573d6000803e3d6000fd5b507f31d995787c3c0dce4ea21ee4836ac88aa1c48c5e70f0c9477d27971d3a827e716001548360200151846040015185606001518660800151868860c001518960e001516040518089815260200180602001806020018060200188600581111561133757fe5b60ff1681526020018773ffffffffffffffffffffffffffffffffffffffff1673ffffffffffffffffffffffffffffffffffffffff16815260200186815260200185815260200184810384528b818151815260200191508051906020019080838360005b838110156113b557808201518184015260208101905061139a565b50505050905090810190601f1680156113e25780820380516001836020036101000a031916815260200191505b5084810383528a818151815260200191508051906020019080838360005b8381101561141b578082015181840152602081019050611400565b50505050905090810190601f1680156114485780820380516001836020036101000a031916815260200191505b50848103825289818151815260200191508051906020019080838360005b83811015611481578082015181840152602081019050611466565b50505050905090810190601f1680156114ae5780820380516001836020036101000a031916815260200191505b509b50505050505050505050505060405180910390a1505050565b60015481565b6000809050600086511115156114e457600080fd5b600085511115156114f457600080fd5b6000845111151561150457600080fd5b60008211151561151357600080fd5b60058081111561151f57fe5b83600581111561152b57fe5b111515156115a1576040517f08c379a00000000000000000000000000000000000000000000000000000000081526004018080602001828103825260108152602001807f496e76616c69642063617465676f72790000000000000000000000000000000081525060200191505060405180910390fd5b6001600081548092919060010191905055506101006040519081016040528060015481526020018781526020018681526020018581526020018460058111156115e657fe5b81526020013373ffffffffffffffffffffffffffffffffffffffff1681526020018381526020018281525060026000600154815260200190815260200160002060008201518160000155602082015181600101908051906020019061164c92919061199f565b50604082015181600201908051906020019061166992919061199f565b50606082015181600301908051906020019061168692919061199f565b5060808201518160040160006101000a81548160ff021916908360058111156116ab57fe5b021790555060a08201518160040160016101000a81548173ffffffffffffffffffffffffffffffffffffffff021916908373ffffffffffffffffffffffffffffffffffffffff16021790555060c0820151816005015560e082015181600601559050507ff8086778da7d6e8b1708f9480f763bd20041b88cd71555f4bccaea93824a8495600154878787873388886040518089815260200180602001806020018060200188600581111561175b57fe5b60ff1681526020018773ffffffffffffffffffffffffffffffffffffffff1673ffffffffffffffffffffffffffffffffffffffff16815260200186815260200185815260200184810384528b818151815260200191508051906020019080838360005b838110156117d95780820151818401526020810190506117be565b50505050905090810190601f1680156118065780820380516001836020036101000a031916815260200191505b5084810383528a818151815260200191508051906020019080838360005b8381101561183f578082015181840152602081019050611824565b50505050905090810190601f16801561186c5780820380516001836020036101000a031916815260200191505b50848103825289818151815260200191508051906020019080838360005b838110156118a557808201518184015260208101905061188a565b50505050905090810190601f1680156118d25780820380516001836020036101000a031916815260200191505b509b50505050505050505050505060405180910390a1505050505050565b61010060405190810160405280600081526020016060815260200160608152602001606081526020016000600581111561192657fe5b8152602001600073ffffffffffffffffffffffffffffffffffffffff16815260200160008152602001600081525090565b50805460018160011615610100020316600290046000825580601f1061197d575061199c565b601f01602090049060005260206000209081019061199b9190611a1f565b5b50565b828054600181600116156101000203166002900490600052602060002090601f016020900481019282601f106119e057805160ff1916838001178555611a0e565b82800160010185558215611a0e579182015b82811115611a0d5782518255916020019190600101906119f2565b5b509050611a1b9190611a1f565b5090565b611a4191905b80821115611a3d576000816000905550600101611a25565b5090565b9056fea165627a7a72305820374d94afee4f51a6e15028411b11e2b94c40fe81fc8929f8318b5661f0201e650029",
  "source": "pragma solidity >=0.4.21 <0.6.0;\n\ncontract Fundraising {\n    string public name;\n    uint public projectNum = 0;\n\n    mapping (uint => Project) public projects;\n\n    enum Category { Other, Technology, Health, Environment, Education, Art }\n\n    struct Project {\n        uint id;\n        string title;\n        string excerpt;\n        string body;\n        Category category;  \n        address payable creator;\n        uint targetAmount;\n        uint amountRaised;\n    }\n\n    event projectCreated(\n        uint id,\n        string title,\n        string excerpt,\n        string body,\n        Category category,\n        address payable creator,\n        uint targetAmount,\n        uint amountRaised\n    );\n\n    event projectDonated(\n        uint id,\n        string title,\n        string excerpt,\n        string body,\n        Category category,\n        address payable creator,\n        uint targetAmount,\n        uint amountRaised\n    );\n\n    event projectDeleted(\n        uint id,\n        string title,\n        string excerpt,\n        string body,\n        Category category,\n        address payable creator,\n        uint targetAmount,\n        uint amountRaised\n    );\n\n    constructor () public {\n        name = \"Fundraising in Blockchain\";\n    }\n\n    function createProject(string memory _title, string memory _excerpt, string memory _body, Category _category, uint _targetAmount) public {\n        uint _amountRaised = 0;\n        require(bytes(_title).length > 0);\n        require(bytes(_excerpt).length > 0);\n        require(bytes(_body).length > 0);\n        require(_targetAmount > 0);\n        require(_category <= Category.Art, \"Invalid category\");\n\n\n        // Add any additional requirements for the category here\n\n        projectNum++;\n        projects[projectNum] = Project(projectNum, _title, _excerpt, _body, _category, msg.sender, _targetAmount, _amountRaised);\n        emit projectCreated(projectNum, _title, _excerpt, _body, _category, msg.sender, _targetAmount, _amountRaised);\n    }\n\n    function donateProject(uint _id) public payable { // we make it payable to be able to make transactions\n        Project memory _project = projects[_id];\n\n        address payable _fundraiser = _project.creator;\n\n        // add here requirements to check validity\n\n        require(_project.id > 0 && _project.id <= projectNum);\n\n        require(_fundraiser != msg.sender); // prevent self donation\n\n        require(msg.value > 0); // the donation amount must be above zero\n\n        require(msg.value + _project.amountRaised <= _project.targetAmount); // the donation amount must not exceed the target amount\n\n\n        _project.amountRaised += msg.value;\n        \n        \n        \n        projects[_id] = _project; // update the project\n\n        address(_fundraiser).transfer(msg.value); // transfer the amount to the fundraiser\n\n\n        \n        emit projectDonated(projectNum, _project.title, _project.excerpt, _project.body, _project.category, _fundraiser, _project.targetAmount, _project.amountRaised);  \n\n    }\n\n    function deleteProject(uint _id) public {\n        Project memory _project = projects[_id];\n\n        address payable _fundraiser = _project.creator;\n\n        require(_project.id > 0 && _project.id <= projectNum); // Check if the project ID is valid\n        require(_fundraiser == msg.sender); // Only the project creator can delete the project\n        require(_project.amountRaised < _project.targetAmount / 20); // Check if less than 5% of the target amount has been raised\n\n        // Delete the project from the mapping\n        delete projects[_id];\n\n        emit projectDeleted(projectNum, _project.title, _project.excerpt, _project.body, _project.category, _fundraiser, _project.targetAmount, _project.amountRaised);\n    }\n\n}\n",
  "sourcePath": "/Users/shahriyarsadigli/Desktop/fundraising-secure/fundraising/src/contracts/Fundraising.sol",
  "compiler": {
    "name": "solc",
    "version": "0.5.0+commit.1d4f565a.Emscripten.clang"
  },
  "schemaVersion": "3.0.2",
  "updatedAt": "2023-04-12T11:39:45.795Z",
  "devdoc": {
    "methods": {}
  },
  "userdoc": {
    "methods": {}
  }
}