{
  "contractName": "Fundraising",
  "abi": [
    {
      "constant": true,
      "inputs": [],
      "name": "name",
      "outputs": [
        {
          "name": "",
          "type": "string"
        }
      ],
      "payable": false,
      "stateMutability": "view",
      "type": "function",
      "signature": "0x06fdde03"
    },
    {
      "constant": true,
      "inputs": [
        {
          "name": "",
          "type": "uint256"
        }
      ],
      "name": "projects",
      "outputs": [
        {
          "name": "id",
          "type": "uint256"
        },
        {
          "name": "title",
          "type": "string"
        },
        {
          "name": "excerpt",
          "type": "string"
        },
        {
          "name": "body",
          "type": "string"
        },
        {
          "name": "imagePath",
          "type": "string"
        },
        {
          "name": "slug",
          "type": "string"
        },
        {
          "name": "category",
          "type": "uint8"
        },
        {
          "name": "creator",
          "type": "address"
        },
        {
          "name": "targetAmount",
          "type": "uint256"
        },
        {
          "name": "amountRaised",
          "type": "uint256"
        }
      ],
      "payable": false,
      "stateMutability": "view",
      "type": "function",
      "signature": "0x107046bd"
    },
    {
      "constant": true,
      "inputs": [],
      "name": "usersContract",
      "outputs": [
        {
          "name": "",
          "type": "address"
        }
      ],
      "payable": false,
      "stateMutability": "view",
      "type": "function",
      "signature": "0x142ebf3c"
    },
    {
      "constant": true,
      "inputs": [],
      "name": "projectNum",
      "outputs": [
        {
          "name": "",
          "type": "uint256"
        }
      ],
      "payable": false,
      "stateMutability": "view",
      "type": "function",
      "signature": "0xa0b5d6c8"
    },
    {
      "inputs": [
        {
          "name": "_usersContractAddress",
          "type": "address"
        }
      ],
      "payable": false,
      "stateMutability": "nonpayable",
      "type": "constructor",
      "signature": "constructor"
    },
    {
      "anonymous": false,
      "inputs": [
        {
          "indexed": false,
          "name": "id",
          "type": "uint256"
        },
        {
          "indexed": false,
          "name": "title",
          "type": "string"
        },
        {
          "indexed": false,
          "name": "excerpt",
          "type": "string"
        },
        {
          "indexed": false,
          "name": "body",
          "type": "string"
        },
        {
          "indexed": false,
          "name": "imagePath",
          "type": "string"
        },
        {
          "indexed": false,
          "name": "slug",
          "type": "string"
        },
        {
          "indexed": false,
          "name": "category",
          "type": "uint8"
        },
        {
          "indexed": false,
          "name": "creator",
          "type": "address"
        },
        {
          "indexed": false,
          "name": "targetAmount",
          "type": "uint256"
        },
        {
          "indexed": false,
          "name": "amountRaised",
          "type": "uint256"
        }
      ],
      "name": "projectCreated",
      "type": "event",
      "signature": "0x45a5b2f7e4cd158f25c8fbef8492796967881660ea568966b7c558e6fb7f5d32"
    },
    {
      "anonymous": false,
      "inputs": [
        {
          "indexed": false,
          "name": "id",
          "type": "uint256"
        },
        {
          "indexed": false,
          "name": "title",
          "type": "string"
        },
        {
          "indexed": false,
          "name": "excerpt",
          "type": "string"
        },
        {
          "indexed": false,
          "name": "body",
          "type": "string"
        },
        {
          "indexed": false,
          "name": "imagePath",
          "type": "string"
        },
        {
          "indexed": false,
          "name": "slug",
          "type": "string"
        },
        {
          "indexed": false,
          "name": "category",
          "type": "uint8"
        },
        {
          "indexed": false,
          "name": "creator",
          "type": "address"
        },
        {
          "indexed": false,
          "name": "targetAmount",
          "type": "uint256"
        },
        {
          "indexed": false,
          "name": "amountRaised",
          "type": "uint256"
        }
      ],
      "name": "projectDonated",
      "type": "event",
      "signature": "0xcbbca172e5762529eef81b52249fc0ff677a0374e24e30014d3f6f9b5c99c92c"
    },
    {
      "anonymous": false,
      "inputs": [
        {
          "indexed": false,
          "name": "id",
          "type": "uint256"
        },
        {
          "indexed": false,
          "name": "title",
          "type": "string"
        },
        {
          "indexed": false,
          "name": "excerpt",
          "type": "string"
        },
        {
          "indexed": false,
          "name": "body",
          "type": "string"
        },
        {
          "indexed": false,
          "name": "imagePath",
          "type": "string"
        },
        {
          "indexed": false,
          "name": "slug",
          "type": "string"
        },
        {
          "indexed": false,
          "name": "category",
          "type": "uint8"
        },
        {
          "indexed": false,
          "name": "creator",
          "type": "address"
        },
        {
          "indexed": false,
          "name": "targetAmount",
          "type": "uint256"
        },
        {
          "indexed": false,
          "name": "amountRaised",
          "type": "uint256"
        }
      ],
      "name": "projectDeleted",
      "type": "event",
      "signature": "0x0a8e3ac38aaa03856e53f8f99f33c7fb2369f62e606376d0f0b6da425519bb57"
    },
    {
      "constant": false,
      "inputs": [
        {
          "name": "_title",
          "type": "string"
        },
        {
          "name": "_excerpt",
          "type": "string"
        },
        {
          "name": "_body",
          "type": "string"
        },
        {
          "name": "_imagePath",
          "type": "string"
        },
        {
          "name": "_slug",
          "type": "string"
        },
        {
          "name": "_category",
          "type": "uint8"
        },
        {
          "name": "_targetAmount",
          "type": "uint256"
        }
      ],
      "name": "createProject",
      "outputs": [],
      "payable": false,
      "stateMutability": "nonpayable",
      "type": "function",
      "signature": "0xd5fe7a73"
    },
    {
      "constant": false,
      "inputs": [
        {
          "name": "_id",
          "type": "uint256"
        }
      ],
      "name": "donateProject",
      "outputs": [],
      "payable": true,
      "stateMutability": "payable",
      "type": "function",
      "signature": "0x85fbf22e"
    },
    {
      "constant": false,
      "inputs": [
        {
          "name": "_id",
          "type": "uint256"
        }
      ],
      "name": "deleteProject",
      "outputs": [],
      "payable": false,
      "stateMutability": "nonpayable",
      "type": "function",
      "signature": "0x4cd0cb28"
    }
  ],
  "bytecode": "0x608060405260006001553480156200001657600080fd5b5060405160208062002896833981018060405260208110156200003857600080fd5b810190808051906020019092919050505080600360006101000a81548173ffffffffffffffffffffffffffffffffffffffff021916908373ffffffffffffffffffffffffffffffffffffffff1602179055506040805190810160405280601981526020017f46756e6472616973696e6720696e20426c6f636b636861696e0000000000000081525060009080519060200190620000d7929190620000df565b50506200018e565b828054600181600116156101000203166002900490600052602060002090601f016020900481019282601f106200012257805160ff191683800117855562000153565b8280016001018555821562000153579182015b828111156200015257825182559160200191906001019062000135565b5b50905062000162919062000166565b5090565b6200018b91905b80821115620001875760008160009055506001016200016d565b5090565b90565b6126f8806200019e6000396000f3fe608060405260043610610083576000357c0100000000000000000000000000000000000000000000000000000000900463ffffffff16806306fdde0314610088578063107046bd14610118578063142ebf3c146103d95780634cd0cb281461043057806385fbf22e1461046b578063a0b5d6c814610499578063d5fe7a73146104c4575b600080fd5b34801561009457600080fd5b5061009d6107ff565b6040518080602001828103825283818151815260200191508051906020019080838360005b838110156100dd5780820151818401526020810190506100c2565b50505050905090810190601f16801561010a5780820380516001836020036101000a031916815260200191505b509250505060405180910390f35b34801561012457600080fd5b506101516004803603602081101561013b57600080fd5b810190808035906020019092919050505061089d565b604051808b815260200180602001806020018060200180602001806020018a600581111561017b57fe5b60ff1681526020018973ffffffffffffffffffffffffffffffffffffffff1673ffffffffffffffffffffffffffffffffffffffff16815260200188815260200187815260200186810386528f818151815260200191508051906020019080838360005b838110156101f95780820151818401526020810190506101de565b50505050905090810190601f1680156102265780820380516001836020036101000a031916815260200191505b5086810385528e818151815260200191508051906020019080838360005b8381101561025f578082015181840152602081019050610244565b50505050905090810190601f16801561028c5780820380516001836020036101000a031916815260200191505b5086810384528d818151815260200191508051906020019080838360005b838110156102c55780820151818401526020810190506102aa565b50505050905090810190601f1680156102f25780820380516001836020036101000a031916815260200191505b5086810383528c818151815260200191508051906020019080838360005b8381101561032b578082015181840152602081019050610310565b50505050905090810190601f1680156103585780820380516001836020036101000a031916815260200191505b5086810382528b818151815260200191508051906020019080838360005b83811015610391578082015181840152602081019050610376565b50505050905090810190601f1680156103be5780820380516001836020036101000a031916815260200191505b509f5050505050505050505050505050505060405180910390f35b3480156103e557600080fd5b506103ee610c16565b604051808273ffffffffffffffffffffffffffffffffffffffff1673ffffffffffffffffffffffffffffffffffffffff16815260200191505060405180910390f35b34801561043c57600080fd5b506104696004803603602081101561045357600080fd5b8101908080359060200190929190505050610c3c565b005b6104976004803603602081101561048157600080fd5b8101908080359060200190929190505050611526565b005b3480156104a557600080fd5b506104ae611f2a565b6040518082815260200191505060405180910390f35b3480156104d057600080fd5b506107fd600480360360e08110156104e757600080fd5b810190808035906020019064010000000081111561050457600080fd5b82018360208201111561051657600080fd5b8035906020019184600183028401116401000000008311171561053857600080fd5b91908080601f016020809104026020016040519081016040528093929190818152602001838380828437600081840152601f19601f8201169050808301925050505050505091929192908035906020019064010000000081111561059b57600080fd5b8201836020820111156105ad57600080fd5b803590602001918460018302840111640100000000831117156105cf57600080fd5b91908080601f016020809104026020016040519081016040528093929190818152602001838380828437600081840152601f19601f8201169050808301925050505050505091929192908035906020019064010000000081111561063257600080fd5b82018360208201111561064457600080fd5b8035906020019184600183028401116401000000008311171561066657600080fd5b91908080601f016020809104026020016040519081016040528093929190818152602001838380828437600081840152601f19601f820116905080830192505050505050509192919290803590602001906401000000008111156106c957600080fd5b8201836020820111156106db57600080fd5b803590602001918460018302840111640100000000831117156106fd57600080fd5b91908080601f016020809104026020016040519081016040528093929190818152602001838380828437600081840152601f19601f8201169050808301925050505050505091929192908035906020019064010000000081111561076057600080fd5b82018360208201111561077257600080fd5b8035906020019184600183028401116401000000008311171561079457600080fd5b91908080601f016020809104026020016040519081016040528093929190818152602001838380828437600081840152601f19601f820116905080830192505050505050509192919290803560ff16906020019092919080359060200190929190505050611f30565b005b60008054600181600116156101000203166002900480601f0160208091040260200160405190810160405280929190818152602001828054600181600116156101000203166002900480156108955780601f1061086a57610100808354040283529160200191610895565b820191906000526020600020905b81548152906001019060200180831161087857829003601f168201915b505050505081565b6002602052806000526040600020600091509050806000015490806001018054600181600116156101000203166002900480601f01602080910402602001604051908101604052809291908181526020018280546001816001161561010002031660029004801561094f5780601f106109245761010080835404028352916020019161094f565b820191906000526020600020905b81548152906001019060200180831161093257829003601f168201915b505050505090806002018054600181600116156101000203166002900480601f0160208091040260200160405190810160405280929190818152602001828054600181600116156101000203166002900480156109ed5780601f106109c2576101008083540402835291602001916109ed565b820191906000526020600020905b8154815290600101906020018083116109d057829003601f168201915b505050505090806003018054600181600116156101000203166002900480601f016020809104026020016040519081016040528092919081815260200182805460018160011615610100020316600290048015610a8b5780601f10610a6057610100808354040283529160200191610a8b565b820191906000526020600020905b815481529060010190602001808311610a6e57829003601f168201915b505050505090806004018054600181600116156101000203166002900480601f016020809104026020016040519081016040528092919081815260200182805460018160011615610100020316600290048015610b295780601f10610afe57610100808354040283529160200191610b29565b820191906000526020600020905b815481529060010190602001808311610b0c57829003601f168201915b505050505090806005018054600181600116156101000203166002900480601f016020809104026020016040519081016040528092919081815260200182805460018160011615610100020316600290048015610bc75780601f10610b9c57610100808354040283529160200191610bc7565b820191906000526020600020905b815481529060010190602001808311610baa57829003601f168201915b5050505050908060060160009054906101000a900460ff16908060060160019054906101000a900473ffffffffffffffffffffffffffffffffffffffff1690806007015490806008015490508a565b600360009054906101000a900473ffffffffffffffffffffffffffffffffffffffff1681565b610c4461256a565b60026000838152602001908152602001600020610140604051908101604052908160008201548152602001600182018054600181600116156101000203166002900480601f016020809104026020016040519081016040528092919081815260200182805460018160011615610100020316600290048015610d075780601f10610cdc57610100808354040283529160200191610d07565b820191906000526020600020905b815481529060010190602001808311610cea57829003601f168201915b50505050508152602001600282018054600181600116156101000203166002900480601f016020809104026020016040519081016040528092919081815260200182805460018160011615610100020316600290048015610da95780601f10610d7e57610100808354040283529160200191610da9565b820191906000526020600020905b815481529060010190602001808311610d8c57829003601f168201915b50505050508152602001600382018054600181600116156101000203166002900480601f016020809104026020016040519081016040528092919081815260200182805460018160011615610100020316600290048015610e4b5780601f10610e2057610100808354040283529160200191610e4b565b820191906000526020600020905b815481529060010190602001808311610e2e57829003601f168201915b50505050508152602001600482018054600181600116156101000203166002900480601f016020809104026020016040519081016040528092919081815260200182805460018160011615610100020316600290048015610eed5780601f10610ec257610100808354040283529160200191610eed565b820191906000526020600020905b815481529060010190602001808311610ed057829003601f168201915b50505050508152602001600582018054600181600116156101000203166002900480601f016020809104026020016040519081016040528092919081815260200182805460018160011615610100020316600290048015610f8f5780601f10610f6457610100808354040283529160200191610f8f565b820191906000526020600020905b815481529060010190602001808311610f7257829003601f168201915b505050505081526020016006820160009054906101000a900460ff166005811115610fb657fe5b6005811115610fc157fe5b81526020016006820160019054906101000a900473ffffffffffffffffffffffffffffffffffffffff1673ffffffffffffffffffffffffffffffffffffffff1673ffffffffffffffffffffffffffffffffffffffff16815260200160078201548152602001600882015481525050905060008160e001519050600082600001511180156110545750600154826000015111155b151561105f57600080fd5b3373ffffffffffffffffffffffffffffffffffffffff168173ffffffffffffffffffffffffffffffffffffffff1614151561109957600080fd5b60148261010001518115156110aa57fe5b048261012001511015156110bd57600080fd5b600360009054906101000a900473ffffffffffffffffffffffffffffffffffffffff1673ffffffffffffffffffffffffffffffffffffffff1663499095ed336040518263ffffffff167c0100000000000000000000000000000000000000000000000000000000028152600401808273ffffffffffffffffffffffffffffffffffffffff1673ffffffffffffffffffffffffffffffffffffffff168152602001915050600060405180830381600087803b15801561117a57600080fd5b505af115801561118e573d6000803e3d6000fd5b50505050600260008481526020019081526020016000206000808201600090556001820160006111be91906125df565b6002820160006111ce91906125df565b6003820160006111de91906125df565b6004820160006111ee91906125df565b6005820160006111fe91906125df565b6006820160006101000a81549060ff02191690556006820160016101000a81549073ffffffffffffffffffffffffffffffffffffffff02191690556007820160009055600882016000905550507f0a8e3ac38aaa03856e53f8f99f33c7fb2369f62e606376d0f0b6da425519bb5760015483602001518460400151856060015186608001518760a001518860c00151888a61010001518b6101200151604051808b815260200180602001806020018060200180602001806020018a60058111156112c457fe5b60ff1681526020018973ffffffffffffffffffffffffffffffffffffffff1673ffffffffffffffffffffffffffffffffffffffff16815260200188815260200187815260200186810386528f818151815260200191508051906020019080838360005b83811015611342578082015181840152602081019050611327565b50505050905090810190601f16801561136f5780820380516001836020036101000a031916815260200191505b5086810385528e818151815260200191508051906020019080838360005b838110156113a857808201518184015260208101905061138d565b50505050905090810190601f1680156113d55780820380516001836020036101000a031916815260200191505b5086810384528d818151815260200191508051906020019080838360005b8381101561140e5780820151818401526020810190506113f3565b50505050905090810190601f16801561143b5780820380516001836020036101000a031916815260200191505b5086810383528c818151815260200191508051906020019080838360005b83811015611474578082015181840152602081019050611459565b50505050905090810190601f1680156114a15780820380516001836020036101000a031916815260200191505b5086810382528b818151815260200191508051906020019080838360005b838110156114da5780820151818401526020810190506114bf565b50505050905090810190601f1680156115075780820380516001836020036101000a031916815260200191505b509f5050505050505050505050505050505060405180910390a1505050565b61152e61256a565b60026000838152602001908152602001600020610140604051908101604052908160008201548152602001600182018054600181600116156101000203166002900480601f0160208091040260200160405190810160405280929190818152602001828054600181600116156101000203166002900480156115f15780601f106115c6576101008083540402835291602001916115f1565b820191906000526020600020905b8154815290600101906020018083116115d457829003601f168201915b50505050508152602001600282018054600181600116156101000203166002900480601f0160208091040260200160405190810160405280929190818152602001828054600181600116156101000203166002900480156116935780601f1061166857610100808354040283529160200191611693565b820191906000526020600020905b81548152906001019060200180831161167657829003601f168201915b50505050508152602001600382018054600181600116156101000203166002900480601f0160208091040260200160405190810160405280929190818152602001828054600181600116156101000203166002900480156117355780601f1061170a57610100808354040283529160200191611735565b820191906000526020600020905b81548152906001019060200180831161171857829003601f168201915b50505050508152602001600482018054600181600116156101000203166002900480601f0160208091040260200160405190810160405280929190818152602001828054600181600116156101000203166002900480156117d75780601f106117ac576101008083540402835291602001916117d7565b820191906000526020600020905b8154815290600101906020018083116117ba57829003601f168201915b50505050508152602001600582018054600181600116156101000203166002900480601f0160208091040260200160405190810160405280929190818152602001828054600181600116156101000203166002900480156118795780601f1061184e57610100808354040283529160200191611879565b820191906000526020600020905b81548152906001019060200180831161185c57829003601f168201915b505050505081526020016006820160009054906101000a900460ff1660058111156118a057fe5b60058111156118ab57fe5b81526020016006820160019054906101000a900473ffffffffffffffffffffffffffffffffffffffff1673ffffffffffffffffffffffffffffffffffffffff1673ffffffffffffffffffffffffffffffffffffffff16815260200160078201548152602001600882015481525050905060008160e0015190506000826000015111801561193e5750600154826000015111155b151561194957600080fd5b3373ffffffffffffffffffffffffffffffffffffffff168173ffffffffffffffffffffffffffffffffffffffff161415151561198457600080fd5b60003411151561199357600080fd5b8161010001518261012001513401111515156119ae57600080fd5b3482610120018181510191508181525050600360009054906101000a900473ffffffffffffffffffffffffffffffffffffffff1673ffffffffffffffffffffffffffffffffffffffff1663c7c7a9cf3383346040518463ffffffff167c0100000000000000000000000000000000000000000000000000000000028152600401808473ffffffffffffffffffffffffffffffffffffffff1673ffffffffffffffffffffffffffffffffffffffff1681526020018373ffffffffffffffffffffffffffffffffffffffff1673ffffffffffffffffffffffffffffffffffffffff1681526020018281526020019350505050600060405180830381600087803b158015611ab857600080fd5b505af1158015611acc573d6000803e3d6000fd5b505050508160026000858152602001908152602001600020600082015181600001556020820151816001019080519060200190611b0a929190612627565b506040820151816002019080519060200190611b27929190612627565b506060820151816003019080519060200190611b44929190612627565b506080820151816004019080519060200190611b61929190612627565b5060a0820151816005019080519060200190611b7e929190612627565b5060c08201518160060160006101000a81548160ff02191690836005811115611ba357fe5b021790555060e08201518160060160016101000a81548173ffffffffffffffffffffffffffffffffffffffff021916908373ffffffffffffffffffffffffffffffffffffffff160217905550610100820151816007015561012082015181600801559050508073ffffffffffffffffffffffffffffffffffffffff166108fc349081150290604051600060405180830381858888f19350505050158015611c4e573d6000803e3d6000fd5b507fcbbca172e5762529eef81b52249fc0ff677a0374e24e30014d3f6f9b5c99c92c60015483602001518460400151856060015186608001518760a001518860c00151888a61010001518b6101200151604051808b815260200180602001806020018060200180602001806020018a6005811115611cc857fe5b60ff1681526020018973ffffffffffffffffffffffffffffffffffffffff1673ffffffffffffffffffffffffffffffffffffffff16815260200188815260200187815260200186810386528f818151815260200191508051906020019080838360005b83811015611d46578082015181840152602081019050611d2b565b50505050905090810190601f168015611d735780820380516001836020036101000a031916815260200191505b5086810385528e818151815260200191508051906020019080838360005b83811015611dac578082015181840152602081019050611d91565b50505050905090810190601f168015611dd95780820380516001836020036101000a031916815260200191505b5086810384528d818151815260200191508051906020019080838360005b83811015611e12578082015181840152602081019050611df7565b50505050905090810190601f168015611e3f5780820380516001836020036101000a031916815260200191505b5086810383528c818151815260200191508051906020019080838360005b83811015611e78578082015181840152602081019050611e5d565b50505050905090810190601f168015611ea55780820380516001836020036101000a031916815260200191505b5086810382528b818151815260200191508051906020019080838360005b83811015611ede578082015181840152602081019050611ec3565b50505050905090810190601f168015611f0b5780820380516001836020036101000a031916815260200191505b509f5050505050505050505050505050505060405180910390a1505050565b60015481565b600080905060008851111515611f4557600080fd5b60008451111515611f5557600080fd5b60008751111515611f6557600080fd5b60008651111515611f7557600080fd5b60008551111515611f8557600080fd5b600082111515611f9457600080fd5b600580811115611fa057fe5b836005811115611fac57fe5b11151515612022576040517f08c379a00000000000000000000000000000000000000000000000000000000081526004018080602001828103825260108152602001807f496e76616c69642063617465676f72790000000000000000000000000000000081525060200191505060405180910390fd5b600360009054906101000a900473ffffffffffffffffffffffffffffffffffffffff1673ffffffffffffffffffffffffffffffffffffffff16637c56b798336040518263ffffffff167c0100000000000000000000000000000000000000000000000000000000028152600401808273ffffffffffffffffffffffffffffffffffffffff1673ffffffffffffffffffffffffffffffffffffffff168152602001915050600060405180830381600087803b1580156120df57600080fd5b505af11580156120f3573d6000803e3d6000fd5b5050505060016000815480929190600101919050555061014060405190810160405280600154815260200189815260200188815260200187815260200186815260200185815260200184600581111561214857fe5b81526020013373ffffffffffffffffffffffffffffffffffffffff168152602001838152602001828152506002600060015481526020019081526020016000206000820151816000015560208201518160010190805190602001906121ae929190612627565b5060408201518160020190805190602001906121cb929190612627565b5060608201518160030190805190602001906121e8929190612627565b506080820151816004019080519060200190612205929190612627565b5060a0820151816005019080519060200190612222929190612627565b5060c08201518160060160006101000a81548160ff0219169083600581111561224757fe5b021790555060e08201518160060160016101000a81548173ffffffffffffffffffffffffffffffffffffffff021916908373ffffffffffffffffffffffffffffffffffffffff160217905550610100820151816007015561012082015181600801559050507f45a5b2f7e4cd158f25c8fbef8492796967881660ea568966b7c558e6fb7f5d32600154898989898989338a8a604051808b815260200180602001806020018060200180602001806020018a600581111561230357fe5b60ff1681526020018973ffffffffffffffffffffffffffffffffffffffff1673ffffffffffffffffffffffffffffffffffffffff16815260200188815260200187815260200186810386528f818151815260200191508051906020019080838360005b83811015612381578082015181840152602081019050612366565b50505050905090810190601f1680156123ae5780820380516001836020036101000a031916815260200191505b5086810385528e818151815260200191508051906020019080838360005b838110156123e75780820151818401526020810190506123cc565b50505050905090810190601f1680156124145780820380516001836020036101000a031916815260200191505b5086810384528d818151815260200191508051906020019080838360005b8381101561244d578082015181840152602081019050612432565b50505050905090810190601f16801561247a5780820380516001836020036101000a031916815260200191505b5086810383528c818151815260200191508051906020019080838360005b838110156124b3578082015181840152602081019050612498565b50505050905090810190601f1680156124e05780820380516001836020036101000a031916815260200191505b5086810382528b818151815260200191508051906020019080838360005b838110156125195780820151818401526020810190506124fe565b50505050905090810190601f1680156125465780820380516001836020036101000a031916815260200191505b509f5050505050505050505050505050505060405180910390a15050505050505050565b61014060405190810160405280600081526020016060815260200160608152602001606081526020016060815260200160608152602001600060058111156125ae57fe5b8152602001600073ffffffffffffffffffffffffffffffffffffffff16815260200160008152602001600081525090565b50805460018160011615610100020316600290046000825580601f106126055750612624565b601f01602090049060005260206000209081019061262391906126a7565b5b50565b828054600181600116156101000203166002900490600052602060002090601f016020900481019282601f1061266857805160ff1916838001178555612696565b82800160010185558215612696579182015b8281111561269557825182559160200191906001019061267a565b5b5090506126a391906126a7565b5090565b6126c991905b808211156126c55760008160009055506001016126ad565b5090565b9056fea165627a7a723058209b8655cd670f619a0ed6e02201733a83ea52dc078882c936c4f2e96158bfeb2b0029",
  "source": "pragma solidity >=0.4.21 <0.6.0;\nimport \"./Users.sol\";\n\n\ncontract Fundraising {\n    string public name;\n    uint public projectNum = 0;\n\n    mapping (uint => Project) public projects;\n\n    Users public usersContract;\n\n    constructor(address _usersContractAddress) public {\n        usersContract = Users(_usersContractAddress);\n        name = \"Fundraising in Blockchain\";\n    }\n\n    enum Category { Other, Technology, Health, Environment, Education, Art }\n\n    struct Project {\n        uint id;\n        string title;\n        string excerpt;\n        string body;\n        string imagePath;\n        string slug;\n        Category category;  \n        address payable creator;\n        uint targetAmount;\n        uint amountRaised;\n        // uint createdAt;\n    }\n\n    event projectCreated(\n        uint id,\n        string title,\n        string excerpt,\n        string body,\n        string imagePath,\n        string slug,\n        Category category,\n        address payable creator,\n        uint targetAmount,\n        uint amountRaised\n    );\n\n    event projectDonated(\n        uint id,\n        string title,\n        string excerpt,\n        string body,\n        string imagePath,\n        string slug,\n        Category category,\n        address payable creator,\n        uint targetAmount,\n        uint amountRaised        \n    );\n\n    event projectDeleted(\n        uint id,\n        string title,\n        string excerpt,\n        string body,\n        string imagePath,\n        string slug,\n        Category category,\n        address payable creator,\n        uint targetAmount,\n        uint amountRaised\n    );\n\n    function createProject(string memory _title, string memory _excerpt, string memory _body, string memory _imagePath, string memory _slug, Category _category, uint _targetAmount) public {\n        uint _amountRaised = 0;\n        require(bytes(_title).length > 0);\n        require(bytes(_slug).length > 0);\n        require(bytes(_excerpt).length > 0);\n        require(bytes(_body).length > 0);\n        require(bytes(_imagePath).length > 0);\n        require(_targetAmount > 0);\n        require(_category <= Category.Art, \"Invalid category\");\n\n\n        // Add any additional requirements for the category here\n\n\n        // add to the number of projects the user created and modify in Users contract\n        usersContract.addProject(msg.sender);\n\n        // uint _createdAt = block.timestamp;\n\n        projectNum++;\n        projects[projectNum] = Project(projectNum, _title, _excerpt, _body, _imagePath, _slug, _category, msg.sender, _targetAmount, _amountRaised);\n        emit projectCreated(projectNum, _title, _excerpt, _body, _imagePath, _slug, _category, msg.sender, _targetAmount, _amountRaised);\n    }\n\n    function donateProject(uint _id) public payable { // we make it payable to be able to make transactions\n        Project memory _project = projects[_id];\n\n        address payable _fundraiser = _project.creator;\n\n        // add here requirements to check validity\n\n        require(_project.id > 0 && _project.id <= projectNum);\n\n        require(_fundraiser != msg.sender); // prevent self donation\n\n        require(msg.value > 0); // the donation amount must be above zero\n\n        require(msg.value + _project.amountRaised <= _project.targetAmount); // the donation amount must not exceed the target amount\n\n\n        _project.amountRaised += msg.value;\n        \n        // // update the number of donations and total donations made by the user\n        usersContract.addDonation(msg.sender, address(_fundraiser), msg.value);\n        \n        \n        projects[_id] = _project; // update the project\n\n        address(_fundraiser).transfer(msg.value); // transfer the amount to the fundraiser\n\n\n        \n        emit projectDonated(projectNum, _project.title, _project.excerpt, _project.body, _project.imagePath, _project.slug, _project.category, _fundraiser, _project.targetAmount, _project.amountRaised);  \n\n    }\n\n    function deleteProject(uint _id) public {\n        Project memory _project = projects[_id];\n\n        address payable _fundraiser = _project.creator;\n\n        require(_project.id > 0 && _project.id <= projectNum); // Check if the project ID is valid\n        require(_fundraiser == msg.sender); // Only the project creator can delete the project\n        require(_project.amountRaised < _project.targetAmount / 20); // Check if less than 5% of the target amount has been raised\n\n        usersContract.deletedProject(msg.sender);\n\n        // Delete the project from the mapping\n        delete projects[_id];\n\n        emit projectDeleted(projectNum, _project.title, _project.excerpt, _project.body, _project.imagePath, _project.slug, _project.category, _fundraiser, _project.targetAmount, _project.amountRaised);\n    }\n\n}\n",
  "sourcePath": "/Users/shahriyarsadigli/Desktop/fundraising-secure/fundraising/src/contracts/Fundraising.sol",
  "compiler": {
    "name": "solc",
    "version": "0.5.0+commit.1d4f565a.Emscripten.clang"
  },
  "schemaVersion": "3.0.2",
  "updatedAt": "2023-04-18T14:39:38.428Z",
  "devdoc": {
    "methods": {}
  },
  "userdoc": {
    "methods": {}
  }
}