{
  "contractName": "Fundraising",
  "abi": [
    {
      "constant": true,
      "inputs": [],
      "name": "name",
      "outputs": [
        {
          "name": "",
          "type": "string"
        }
      ],
      "payable": false,
      "stateMutability": "view",
      "type": "function",
      "signature": "0x06fdde03"
    },
    {
      "constant": true,
      "inputs": [
        {
          "name": "",
          "type": "uint256"
        }
      ],
      "name": "projects",
      "outputs": [
        {
          "name": "id",
          "type": "uint256"
        },
        {
          "name": "title",
          "type": "string"
        },
        {
          "name": "excerpt",
          "type": "string"
        },
        {
          "name": "body",
          "type": "string"
        },
        {
          "name": "creator",
          "type": "address"
        },
        {
          "name": "targetAmount",
          "type": "uint256"
        },
        {
          "name": "amountRaised",
          "type": "uint256"
        }
      ],
      "payable": false,
      "stateMutability": "view",
      "type": "function",
      "signature": "0x107046bd"
    },
    {
      "constant": true,
      "inputs": [],
      "name": "projectNum",
      "outputs": [
        {
          "name": "",
          "type": "uint256"
        }
      ],
      "payable": false,
      "stateMutability": "view",
      "type": "function",
      "signature": "0xa0b5d6c8"
    },
    {
      "inputs": [],
      "payable": false,
      "stateMutability": "nonpayable",
      "type": "constructor",
      "signature": "constructor"
    },
    {
      "anonymous": false,
      "inputs": [
        {
          "indexed": false,
          "name": "id",
          "type": "uint256"
        },
        {
          "indexed": false,
          "name": "title",
          "type": "string"
        },
        {
          "indexed": false,
          "name": "excerpt",
          "type": "string"
        },
        {
          "indexed": false,
          "name": "body",
          "type": "string"
        },
        {
          "indexed": false,
          "name": "creator",
          "type": "address"
        },
        {
          "indexed": false,
          "name": "targetAmount",
          "type": "uint256"
        },
        {
          "indexed": false,
          "name": "amountRaised",
          "type": "uint256"
        }
      ],
      "name": "projectCreated",
      "type": "event",
      "signature": "0xce28a39326c0f8b1c2e1a41218fa7fe10d945f4381961cb77c7d4d328e28e773"
    },
    {
      "anonymous": false,
      "inputs": [
        {
          "indexed": false,
          "name": "id",
          "type": "uint256"
        },
        {
          "indexed": false,
          "name": "title",
          "type": "string"
        },
        {
          "indexed": false,
          "name": "excerpt",
          "type": "string"
        },
        {
          "indexed": false,
          "name": "body",
          "type": "string"
        },
        {
          "indexed": false,
          "name": "creator",
          "type": "address"
        },
        {
          "indexed": false,
          "name": "targetAmount",
          "type": "uint256"
        },
        {
          "indexed": false,
          "name": "amountRaised",
          "type": "uint256"
        }
      ],
      "name": "projectDonated",
      "type": "event",
      "signature": "0x3a3fe9b23dedc5636dea3be39ae66aeb2cfc2871b7496e3faaf2e3724ff33927"
    },
    {
      "anonymous": false,
      "inputs": [
        {
          "indexed": false,
          "name": "id",
          "type": "uint256"
        },
        {
          "indexed": false,
          "name": "title",
          "type": "string"
        },
        {
          "indexed": false,
          "name": "excerpt",
          "type": "string"
        },
        {
          "indexed": false,
          "name": "body",
          "type": "string"
        },
        {
          "indexed": false,
          "name": "creator",
          "type": "address"
        },
        {
          "indexed": false,
          "name": "targetAmount",
          "type": "uint256"
        },
        {
          "indexed": false,
          "name": "amountRaised",
          "type": "uint256"
        }
      ],
      "name": "projectDeleted",
      "type": "event",
      "signature": "0x69e85c218624598d112a15bf48e91d8fdad8f2e5f052daebdcbf5aea4fcf0f0d"
    },
    {
      "constant": false,
      "inputs": [
        {
          "name": "_title",
          "type": "string"
        },
        {
          "name": "_excerpt",
          "type": "string"
        },
        {
          "name": "_body",
          "type": "string"
        },
        {
          "name": "_targetAmount",
          "type": "uint256"
        }
      ],
      "name": "createProject",
      "outputs": [],
      "payable": false,
      "stateMutability": "nonpayable",
      "type": "function",
      "signature": "0x1ca73896"
    },
    {
      "constant": false,
      "inputs": [
        {
          "name": "_id",
          "type": "uint256"
        }
      ],
      "name": "donateProject",
      "outputs": [],
      "payable": true,
      "stateMutability": "payable",
      "type": "function",
      "signature": "0x85fbf22e"
    },
    {
      "constant": false,
      "inputs": [
        {
          "name": "_id",
          "type": "uint256"
        }
      ],
      "name": "deleteProject",
      "outputs": [],
      "payable": false,
      "stateMutability": "nonpayable",
      "type": "function",
      "signature": "0x4cd0cb28"
    }
  ],
  "bytecode": "0x608060405260006001553480156200001657600080fd5b506040805190810160405280601981526020017f46756e6472616973696e6720696e20426c6f636b636861696e0000000000000081525060009080519060200190620000649291906200006b565b506200011a565b828054600181600116156101000203166002900490600052602060002090601f016020900481019282601f10620000ae57805160ff1916838001178555620000df565b82800160010185558215620000df579182015b82811115620000de578251825591602001919060010190620000c1565b5b509050620000ee9190620000f2565b5090565b6200011791905b8082111562000113576000816000905550600101620000f9565b5090565b90565b61187b806200012a6000396000f3fe608060405260043610610078576000357c0100000000000000000000000000000000000000000000000000000000900463ffffffff16806306fdde031461007d578063107046bd1461010d5780631ca73896146102e15780634cd0cb28146104e157806385fbf22e1461051c578063a0b5d6c81461054a575b600080fd5b34801561008957600080fd5b50610092610575565b6040518080602001828103825283818151815260200191508051906020019080838360005b838110156100d25780820151818401526020810190506100b7565b50505050905090810190601f1680156100ff5780820380516001836020036101000a031916815260200191505b509250505060405180910390f35b34801561011957600080fd5b506101466004803603602081101561013057600080fd5b8101908080359060200190929190505050610613565b604051808881526020018060200180602001806020018773ffffffffffffffffffffffffffffffffffffffff1673ffffffffffffffffffffffffffffffffffffffff16815260200186815260200185815260200184810384528a818151815260200191508051906020019080838360005b838110156101d25780820151818401526020810190506101b7565b50505050905090810190601f1680156101ff5780820380516001836020036101000a031916815260200191505b50848103835289818151815260200191508051906020019080838360005b8381101561023857808201518184015260208101905061021d565b50505050905090810190601f1680156102655780820380516001836020036101000a031916815260200191505b50848103825288818151815260200191508051906020019080838360005b8381101561029e578082015181840152602081019050610283565b50505050905090810190601f1680156102cb5780820380516001836020036101000a031916815260200191505b509a505050505050505050505060405180910390f35b3480156102ed57600080fd5b506104df6004803603608081101561030457600080fd5b810190808035906020019064010000000081111561032157600080fd5b82018360208201111561033357600080fd5b8035906020019184600183028401116401000000008311171561035557600080fd5b91908080601f016020809104026020016040519081016040528093929190818152602001838380828437600081840152601f19601f820116905080830192505050505050509192919290803590602001906401000000008111156103b857600080fd5b8201836020820111156103ca57600080fd5b803590602001918460018302840111640100000000831117156103ec57600080fd5b91908080601f016020809104026020016040519081016040528093929190818152602001838380828437600081840152601f19601f8201169050808301925050505050505091929192908035906020019064010000000081111561044f57600080fd5b82018360208201111561046157600080fd5b8035906020019184600183028401116401000000008311171561048357600080fd5b91908080601f016020809104026020016040519081016040528093929190818152602001838380828437600081840152601f19601f8201169050808301925050505050505091929192908035906020019092919050505061083d565b005b3480156104ed57600080fd5b5061051a6004803603602081101561050457600080fd5b8101908080359060200190929190505050610b7e565b005b6105486004803603602081101561053257600080fd5b81019080803590602001909291905050506110ed565b005b34801561055657600080fd5b5061055f611708565b6040518082815260200191505060405180910390f35b60008054600181600116156101000203166002900480601f01602080910402602001604051908101604052809291908181526020018280546001816001161561010002031660029004801561060b5780601f106105e05761010080835404028352916020019161060b565b820191906000526020600020905b8154815290600101906020018083116105ee57829003601f168201915b505050505081565b6002602052806000526040600020600091509050806000015490806001018054600181600116156101000203166002900480601f0160208091040260200160405190810160405280929190818152602001828054600181600116156101000203166002900480156106c55780601f1061069a576101008083540402835291602001916106c5565b820191906000526020600020905b8154815290600101906020018083116106a857829003601f168201915b505050505090806002018054600181600116156101000203166002900480601f0160208091040260200160405190810160405280929190818152602001828054600181600116156101000203166002900480156107635780601f1061073857610100808354040283529160200191610763565b820191906000526020600020905b81548152906001019060200180831161074657829003601f168201915b505050505090806003018054600181600116156101000203166002900480601f0160208091040260200160405190810160405280929190818152602001828054600181600116156101000203166002900480156108015780601f106107d657610100808354040283529160200191610801565b820191906000526020600020905b8154815290600101906020018083116107e457829003601f168201915b5050505050908060040160009054906101000a900473ffffffffffffffffffffffffffffffffffffffff16908060050154908060060154905087565b60008090506000855111151561085257600080fd5b6000845111151561086257600080fd5b6000835111151561087257600080fd5b60008211151561088157600080fd5b60016000815480929190600101919050555060e06040519081016040528060015481526020018681526020018581526020018481526020013373ffffffffffffffffffffffffffffffffffffffff1681526020018381526020018281525060026000600154815260200190815260200160002060008201518160000155602082015181600101908051906020019061091a92919061170e565b50604082015181600201908051906020019061093792919061170e565b50606082015181600301908051906020019061095492919061170e565b5060808201518160040160006101000a81548173ffffffffffffffffffffffffffffffffffffffff021916908373ffffffffffffffffffffffffffffffffffffffff16021790555060a0820151816005015560c082015181600601559050507fce28a39326c0f8b1c2e1a41218fa7fe10d945f4381961cb77c7d4d328e28e773600154868686338787604051808881526020018060200180602001806020018773ffffffffffffffffffffffffffffffffffffffff1673ffffffffffffffffffffffffffffffffffffffff16815260200186815260200185815260200184810384528a818151815260200191508051906020019080838360005b83811015610a69578082015181840152602081019050610a4e565b50505050905090810190601f168015610a965780820380516001836020036101000a031916815260200191505b50848103835289818151815260200191508051906020019080838360005b83811015610acf578082015181840152602081019050610ab4565b50505050905090810190601f168015610afc5780820380516001836020036101000a031916815260200191505b50848103825288818151815260200191508051906020019080838360005b83811015610b35578082015181840152602081019050610b1a565b50505050905090810190601f168015610b625780820380516001836020036101000a031916815260200191505b509a505050505050505050505060405180910390a15050505050565b610b8661178e565b6002600083815260200190815260200160002060e0604051908101604052908160008201548152602001600182018054600181600116156101000203166002900480601f016020809104026020016040519081016040528092919081815260200182805460018160011615610100020316600290048015610c485780601f10610c1d57610100808354040283529160200191610c48565b820191906000526020600020905b815481529060010190602001808311610c2b57829003601f168201915b50505050508152602001600282018054600181600116156101000203166002900480601f016020809104026020016040519081016040528092919081815260200182805460018160011615610100020316600290048015610cea5780601f10610cbf57610100808354040283529160200191610cea565b820191906000526020600020905b815481529060010190602001808311610ccd57829003601f168201915b50505050508152602001600382018054600181600116156101000203166002900480601f016020809104026020016040519081016040528092919081815260200182805460018160011615610100020316600290048015610d8c5780601f10610d6157610100808354040283529160200191610d8c565b820191906000526020600020905b815481529060010190602001808311610d6f57829003601f168201915b505050505081526020016004820160009054906101000a900473ffffffffffffffffffffffffffffffffffffffff1673ffffffffffffffffffffffffffffffffffffffff1673ffffffffffffffffffffffffffffffffffffffff16815260200160058201548152602001600682015481525050905060008160800151905060008260000151118015610e245750600154826000015111155b1515610e2f57600080fd5b3373ffffffffffffffffffffffffffffffffffffffff168173ffffffffffffffffffffffffffffffffffffffff16141515610e6957600080fd5b60148260a00151811515610e7957fe5b048260c00151101515610e8b57600080fd5b60026000848152602001908152602001600020600080820160009055600182016000610eb791906117e2565b600282016000610ec791906117e2565b600382016000610ed791906117e2565b6004820160006101000a81549073ffffffffffffffffffffffffffffffffffffffff02191690556005820160009055600682016000905550507f69e85c218624598d112a15bf48e91d8fdad8f2e5f052daebdcbf5aea4fcf0f0d600154836020015184604001518560600151858760a001518860c00151604051808881526020018060200180602001806020018773ffffffffffffffffffffffffffffffffffffffff1673ffffffffffffffffffffffffffffffffffffffff16815260200186815260200185815260200184810384528a818151815260200191508051906020019080838360005b83811015610fda578082015181840152602081019050610fbf565b50505050905090810190601f1680156110075780820380516001836020036101000a031916815260200191505b50848103835289818151815260200191508051906020019080838360005b83811015611040578082015181840152602081019050611025565b50505050905090810190601f16801561106d5780820380516001836020036101000a031916815260200191505b50848103825288818151815260200191508051906020019080838360005b838110156110a657808201518184015260208101905061108b565b50505050905090810190601f1680156110d35780820380516001836020036101000a031916815260200191505b509a505050505050505050505060405180910390a1505050565b6110f561178e565b6002600083815260200190815260200160002060e0604051908101604052908160008201548152602001600182018054600181600116156101000203166002900480601f0160208091040260200160405190810160405280929190818152602001828054600181600116156101000203166002900480156111b75780601f1061118c576101008083540402835291602001916111b7565b820191906000526020600020905b81548152906001019060200180831161119a57829003601f168201915b50505050508152602001600282018054600181600116156101000203166002900480601f0160208091040260200160405190810160405280929190818152602001828054600181600116156101000203166002900480156112595780601f1061122e57610100808354040283529160200191611259565b820191906000526020600020905b81548152906001019060200180831161123c57829003601f168201915b50505050508152602001600382018054600181600116156101000203166002900480601f0160208091040260200160405190810160405280929190818152602001828054600181600116156101000203166002900480156112fb5780601f106112d0576101008083540402835291602001916112fb565b820191906000526020600020905b8154815290600101906020018083116112de57829003601f168201915b505050505081526020016004820160009054906101000a900473ffffffffffffffffffffffffffffffffffffffff1673ffffffffffffffffffffffffffffffffffffffff1673ffffffffffffffffffffffffffffffffffffffff168152602001600582015481526020016006820154815250509050600081608001519050600082600001511180156113935750600154826000015111155b151561139e57600080fd5b3373ffffffffffffffffffffffffffffffffffffffff168173ffffffffffffffffffffffffffffffffffffffff16141515156113d957600080fd5b6000341115156113e857600080fd5b8160a001518260c0015134011115151561140157600080fd5b348260c0018181510191508181525050816002600085815260200190815260200160002060008201518160000155602082015181600101908051906020019061144b92919061170e565b50604082015181600201908051906020019061146892919061170e565b50606082015181600301908051906020019061148592919061170e565b5060808201518160040160006101000a81548173ffffffffffffffffffffffffffffffffffffffff021916908373ffffffffffffffffffffffffffffffffffffffff16021790555060a0820151816005015560c082015181600601559050508073ffffffffffffffffffffffffffffffffffffffff166108fc349081150290604051600060405180830381858888f1935050505015801561152a573d6000803e3d6000fd5b507f3a3fe9b23dedc5636dea3be39ae66aeb2cfc2871b7496e3faaf2e3724ff33927600154836020015184604001518560600151858760a001518860c00151604051808881526020018060200180602001806020018773ffffffffffffffffffffffffffffffffffffffff1673ffffffffffffffffffffffffffffffffffffffff16815260200186815260200185815260200184810384528a818151815260200191508051906020019080838360005b838110156115f55780820151818401526020810190506115da565b50505050905090810190601f1680156116225780820380516001836020036101000a031916815260200191505b50848103835289818151815260200191508051906020019080838360005b8381101561165b578082015181840152602081019050611640565b50505050905090810190601f1680156116885780820380516001836020036101000a031916815260200191505b50848103825288818151815260200191508051906020019080838360005b838110156116c15780820151818401526020810190506116a6565b50505050905090810190601f1680156116ee5780820380516001836020036101000a031916815260200191505b509a505050505050505050505060405180910390a1505050565b60015481565b828054600181600116156101000203166002900490600052602060002090601f016020900481019282601f1061174f57805160ff191683800117855561177d565b8280016001018555821561177d579182015b8281111561177c578251825591602001919060010190611761565b5b50905061178a919061182a565b5090565b60e06040519081016040528060008152602001606081526020016060815260200160608152602001600073ffffffffffffffffffffffffffffffffffffffff16815260200160008152602001600081525090565b50805460018160011615610100020316600290046000825580601f106118085750611827565b601f016020900490600052602060002090810190611826919061182a565b5b50565b61184c91905b80821115611848576000816000905550600101611830565b5090565b9056fea165627a7a72305820530d8f2d713496b51b0762976b9cc29e62d1359b160298291274d66f9e052cbd0029",
  "source": "pragma solidity >=0.4.21 <0.6.0;\n\ncontract Fundraising {\n    string public name;\n    uint public projectNum = 0;\n\n    mapping (uint => Project) public projects;\n\n    struct Project {\n        uint id;\n        string title;\n        string excerpt;\n        string body;\n        address payable creator;\n        // string imgFilePath; // path to the project image\n        uint targetAmount;\n        uint amountRaised;\n    }\n\n    event projectCreated(\n        uint id,\n        string title,\n        string excerpt,\n        string body,\n        address payable creator,\n        uint targetAmount,\n        uint amountRaised\n    );\n\n    event projectDonated(\n        uint id,\n        string title,\n        string excerpt,\n        string body,\n        address payable creator,\n        uint targetAmount,\n        uint amountRaised\n    );\n\n    event projectDeleted(\n        uint id,\n        string title,\n        string excerpt,\n        string body,\n        address payable creator,\n        uint targetAmount,\n        uint amountRaised\n    );\n\n    constructor () public {\n        name = \"Fundraising in Blockchain\";\n    }\n\n    function createProject(string memory _title, string memory _excerpt, string memory _body, uint _targetAmount) public {\n        uint _amountRaised = 0; // initially the raised amount is 0 \n        // title, excerpt, and body should exist and be longer than 0 string length\n        require(bytes(_title).length > 0);\n        require(bytes(_excerpt).length > 0);\n        require(bytes(_body).length > 0);\n\n        // the target amount should be more than 0\n        require(_targetAmount > 0);\n\n        // fix the rest of requirements here\n        \n        projectNum++;\n\n        projects[projectNum] = Project(projectNum, _title, _excerpt, _body, msg.sender, _targetAmount, _amountRaised);  \n\n        emit projectCreated(projectNum, _title, _excerpt, _body, msg.sender, _targetAmount, _amountRaised);  \n    }\n\n    function donateProject(uint _id) public payable { // we make it payable to be able to make transactions\n        Project memory _project = projects[_id];\n\n        address payable _fundraiser = _project.creator;\n\n        // add here requirements to check validity\n\n        require(_project.id > 0 && _project.id <= projectNum);\n\n        require(_fundraiser != msg.sender); // prevent self donation\n\n        require(msg.value > 0); // the donation amount must be above zero\n\n        require(msg.value + _project.amountRaised <= _project.targetAmount); // the donation amount must not exceed the target amount\n\n\n        _project.amountRaised += msg.value;\n        \n        \n        \n        projects[_id] = _project; // update the project\n\n        address(_fundraiser).transfer(msg.value); // transfer the amount to the fundraiser\n\n\n        \n        emit projectDonated(projectNum, _project.title, _project.excerpt, _project.body, _fundraiser, _project.targetAmount, _project.amountRaised);  \n\n    }\n\n    function deleteProject(uint _id) public {\n        Project memory _project = projects[_id];\n\n        address payable _fundraiser = _project.creator;\n\n        require(_project.id > 0 && _project.id <= projectNum); // Check if the project ID is valid\n        require(_fundraiser == msg.sender); // Only the project creator can delete the project\n        require(_project.amountRaised < _project.targetAmount / 20); // Check if less than 5% of the target amount has been raised\n\n        // Delete the project from the mapping\n        delete projects[_id];\n\n        emit projectDeleted(projectNum, _project.title, _project.excerpt, _project.body, _fundraiser, _project.targetAmount, _project.amountRaised);\n    }\n\n}\n",
  "sourcePath": "/Users/shahriyarsadigli/Desktop/fundraising-secure/fundraising/src/contracts/Fundraising.sol",
  "compiler": {
    "name": "solc",
    "version": "0.5.0+commit.1d4f565a.Emscripten.clang"
  },
  "schemaVersion": "3.0.2",
  "updatedAt": "2023-04-07T21:30:20.753Z",
  "devdoc": {
    "methods": {}
  },
  "userdoc": {
    "methods": {}
  }
}