{
  "contractName": "Fundraising",
  "abi": [
    {
      "constant": true,
      "inputs": [],
      "name": "name",
      "outputs": [
        {
          "name": "",
          "type": "string"
        }
      ],
      "payable": false,
      "stateMutability": "view",
      "type": "function",
      "signature": "0x06fdde03"
    },
    {
      "constant": true,
      "inputs": [
        {
          "name": "",
          "type": "uint256"
        }
      ],
      "name": "projects",
      "outputs": [
        {
          "name": "id",
          "type": "uint256"
        },
        {
          "name": "title",
          "type": "string"
        },
        {
          "name": "excerpt",
          "type": "string"
        },
        {
          "name": "body",
          "type": "string"
        },
        {
          "name": "slug",
          "type": "string"
        },
        {
          "name": "category",
          "type": "uint8"
        },
        {
          "name": "creator",
          "type": "address"
        },
        {
          "name": "targetAmount",
          "type": "uint256"
        },
        {
          "name": "amountRaised",
          "type": "uint256"
        },
        {
          "name": "createdAt",
          "type": "uint256"
        }
      ],
      "payable": false,
      "stateMutability": "view",
      "type": "function",
      "signature": "0x107046bd"
    },
    {
      "constant": true,
      "inputs": [],
      "name": "usersContract",
      "outputs": [
        {
          "name": "",
          "type": "address"
        }
      ],
      "payable": false,
      "stateMutability": "view",
      "type": "function",
      "signature": "0x142ebf3c"
    },
    {
      "constant": true,
      "inputs": [],
      "name": "projectNum",
      "outputs": [
        {
          "name": "",
          "type": "uint256"
        }
      ],
      "payable": false,
      "stateMutability": "view",
      "type": "function",
      "signature": "0xa0b5d6c8"
    },
    {
      "inputs": [
        {
          "name": "_usersContractAddress",
          "type": "address"
        }
      ],
      "payable": false,
      "stateMutability": "nonpayable",
      "type": "constructor",
      "signature": "constructor"
    },
    {
      "anonymous": false,
      "inputs": [
        {
          "indexed": false,
          "name": "id",
          "type": "uint256"
        },
        {
          "indexed": false,
          "name": "title",
          "type": "string"
        },
        {
          "indexed": false,
          "name": "excerpt",
          "type": "string"
        },
        {
          "indexed": false,
          "name": "body",
          "type": "string"
        },
        {
          "indexed": false,
          "name": "slug",
          "type": "string"
        },
        {
          "indexed": false,
          "name": "category",
          "type": "uint8"
        },
        {
          "indexed": false,
          "name": "creator",
          "type": "address"
        },
        {
          "indexed": false,
          "name": "targetAmount",
          "type": "uint256"
        },
        {
          "indexed": false,
          "name": "amountRaised",
          "type": "uint256"
        },
        {
          "indexed": false,
          "name": "createdAt",
          "type": "uint256"
        }
      ],
      "name": "projectCreated",
      "type": "event",
      "signature": "0x0ab5bee7fe896b60713e3bca06df8a641aaf3ba7d0c208e416f8fc9b324e7480"
    },
    {
      "anonymous": false,
      "inputs": [
        {
          "indexed": false,
          "name": "id",
          "type": "uint256"
        },
        {
          "indexed": false,
          "name": "title",
          "type": "string"
        },
        {
          "indexed": false,
          "name": "excerpt",
          "type": "string"
        },
        {
          "indexed": false,
          "name": "body",
          "type": "string"
        },
        {
          "indexed": false,
          "name": "slug",
          "type": "string"
        },
        {
          "indexed": false,
          "name": "category",
          "type": "uint8"
        },
        {
          "indexed": false,
          "name": "creator",
          "type": "address"
        },
        {
          "indexed": false,
          "name": "targetAmount",
          "type": "uint256"
        },
        {
          "indexed": false,
          "name": "amountRaised",
          "type": "uint256"
        },
        {
          "indexed": false,
          "name": "createdAt",
          "type": "uint256"
        }
      ],
      "name": "projectDonated",
      "type": "event",
      "signature": "0x1217f883fb0918dbeb870c0cdf3df605f32ba4876f1ab9674d5b58dfe6a77e06"
    },
    {
      "anonymous": false,
      "inputs": [
        {
          "indexed": false,
          "name": "id",
          "type": "uint256"
        },
        {
          "indexed": false,
          "name": "title",
          "type": "string"
        },
        {
          "indexed": false,
          "name": "excerpt",
          "type": "string"
        },
        {
          "indexed": false,
          "name": "body",
          "type": "string"
        },
        {
          "indexed": false,
          "name": "slug",
          "type": "string"
        },
        {
          "indexed": false,
          "name": "category",
          "type": "uint8"
        },
        {
          "indexed": false,
          "name": "creator",
          "type": "address"
        },
        {
          "indexed": false,
          "name": "targetAmount",
          "type": "uint256"
        },
        {
          "indexed": false,
          "name": "amountRaised",
          "type": "uint256"
        },
        {
          "indexed": false,
          "name": "createdAt",
          "type": "uint256"
        }
      ],
      "name": "projectDeleted",
      "type": "event",
      "signature": "0x2718dec0fba9532d37326c4c9505efa404ca942a0e119c2c389dc62a84fefcdc"
    },
    {
      "constant": false,
      "inputs": [
        {
          "name": "_title",
          "type": "string"
        },
        {
          "name": "_excerpt",
          "type": "string"
        },
        {
          "name": "_body",
          "type": "string"
        },
        {
          "name": "_slug",
          "type": "string"
        },
        {
          "name": "_category",
          "type": "uint8"
        },
        {
          "name": "_targetAmount",
          "type": "uint256"
        }
      ],
      "name": "createProject",
      "outputs": [],
      "payable": false,
      "stateMutability": "nonpayable",
      "type": "function",
      "signature": "0x4893925b"
    },
    {
      "constant": false,
      "inputs": [
        {
          "name": "_id",
          "type": "uint256"
        }
      ],
      "name": "donateProject",
      "outputs": [],
      "payable": true,
      "stateMutability": "payable",
      "type": "function",
      "signature": "0x85fbf22e"
    },
    {
      "constant": false,
      "inputs": [
        {
          "name": "_id",
          "type": "uint256"
        }
      ],
      "name": "deleteProject",
      "outputs": [],
      "payable": false,
      "stateMutability": "nonpayable",
      "type": "function",
      "signature": "0x4cd0cb28"
    }
  ],
  "bytecode": "0x608060405260006001553480156200001657600080fd5b5060405160208062002458833981018060405260208110156200003857600080fd5b810190808051906020019092919050505080600360006101000a81548173ffffffffffffffffffffffffffffffffffffffff021916908373ffffffffffffffffffffffffffffffffffffffff1602179055506040805190810160405280601981526020017f46756e6472616973696e6720696e20426c6f636b636861696e0000000000000081525060009080519060200190620000d7929190620000df565b50506200018e565b828054600181600116156101000203166002900490600052602060002090601f016020900481019282601f106200012257805160ff191683800117855562000153565b8280016001018555821562000153579182015b828111156200015257825182559160200191906001019062000135565b5b50905062000162919062000166565b5090565b6200018b91905b80821115620001875760008160009055506001016200016d565b5090565b90565b6122ba806200019e6000396000f3fe608060405260043610610083576000357c0100000000000000000000000000000000000000000000000000000000900463ffffffff16806306fdde0314610088578063107046bd14610118578063142ebf3c146103745780634893925b146103cb5780634cd0cb281461066f57806385fbf22e146106aa578063a0b5d6c8146106d8575b600080fd5b34801561009457600080fd5b5061009d610703565b6040518080602001828103825283818151815260200191508051906020019080838360005b838110156100dd5780820151818401526020810190506100c2565b50505050905090810190601f16801561010a5780820380516001836020036101000a031916815260200191505b509250505060405180910390f35b34801561012457600080fd5b506101516004803603602081101561013b57600080fd5b81019080803590602001909291905050506107a1565b604051808b8152602001806020018060200180602001806020018a600581111561017757fe5b60ff1681526020018973ffffffffffffffffffffffffffffffffffffffff1673ffffffffffffffffffffffffffffffffffffffff16815260200188815260200187815260200186815260200185810385528e818151815260200191508051906020019080838360005b838110156101fb5780820151818401526020810190506101e0565b50505050905090810190601f1680156102285780820380516001836020036101000a031916815260200191505b5085810384528d818151815260200191508051906020019080838360005b83811015610261578082015181840152602081019050610246565b50505050905090810190601f16801561028e5780820380516001836020036101000a031916815260200191505b5085810383528c818151815260200191508051906020019080838360005b838110156102c75780820151818401526020810190506102ac565b50505050905090810190601f1680156102f45780820380516001836020036101000a031916815260200191505b5085810382528b818151815260200191508051906020019080838360005b8381101561032d578082015181840152602081019050610312565b50505050905090810190601f16801561035a5780820380516001836020036101000a031916815260200191505b509e50505050505050505050505050505060405180910390f35b34801561038057600080fd5b50610389610a82565b604051808273ffffffffffffffffffffffffffffffffffffffff1673ffffffffffffffffffffffffffffffffffffffff16815260200191505060405180910390f35b3480156103d757600080fd5b5061066d600480360360c08110156103ee57600080fd5b810190808035906020019064010000000081111561040b57600080fd5b82018360208201111561041d57600080fd5b8035906020019184600183028401116401000000008311171561043f57600080fd5b91908080601f016020809104026020016040519081016040528093929190818152602001838380828437600081840152601f19601f820116905080830192505050505050509192919290803590602001906401000000008111156104a257600080fd5b8201836020820111156104b457600080fd5b803590602001918460018302840111640100000000831117156104d657600080fd5b91908080601f016020809104026020016040519081016040528093929190818152602001838380828437600081840152601f19601f8201169050808301925050505050505091929192908035906020019064010000000081111561053957600080fd5b82018360208201111561054b57600080fd5b8035906020019184600183028401116401000000008311171561056d57600080fd5b91908080601f016020809104026020016040519081016040528093929190818152602001838380828437600081840152601f19601f820116905080830192505050505050509192919290803590602001906401000000008111156105d057600080fd5b8201836020820111156105e257600080fd5b8035906020019184600183028401116401000000008311171561060457600080fd5b91908080601f016020809104026020016040519081016040528093929190818152602001838380828437600081840152601f19601f820116905080830192505050505050509192919290803560ff16906020019092919080359060200190929190505050610aa8565b005b34801561067b57600080fd5b506106a86004803603602081101561069257600080fd5b810190808035906020019092919050505061104f565b005b6106d6600480360360208110156106c057600080fd5b8101908080359060200190929190505050611833565b005b3480156106e457600080fd5b506106ed612126565b6040518082815260200191505060405180910390f35b60008054600181600116156101000203166002900480601f0160208091040260200160405190810160405280929190818152602001828054600181600116156101000203166002900480156107995780601f1061076e57610100808354040283529160200191610799565b820191906000526020600020905b81548152906001019060200180831161077c57829003601f168201915b505050505081565b6002602052806000526040600020600091509050806000015490806001018054600181600116156101000203166002900480601f0160208091040260200160405190810160405280929190818152602001828054600181600116156101000203166002900480156108535780601f1061082857610100808354040283529160200191610853565b820191906000526020600020905b81548152906001019060200180831161083657829003601f168201915b505050505090806002018054600181600116156101000203166002900480601f0160208091040260200160405190810160405280929190818152602001828054600181600116156101000203166002900480156108f15780601f106108c6576101008083540402835291602001916108f1565b820191906000526020600020905b8154815290600101906020018083116108d457829003601f168201915b505050505090806003018054600181600116156101000203166002900480601f01602080910402602001604051908101604052809291908181526020018280546001816001161561010002031660029004801561098f5780601f106109645761010080835404028352916020019161098f565b820191906000526020600020905b81548152906001019060200180831161097257829003601f168201915b505050505090806004018054600181600116156101000203166002900480601f016020809104026020016040519081016040528092919081815260200182805460018160011615610100020316600290048015610a2d5780601f10610a0257610100808354040283529160200191610a2d565b820191906000526020600020905b815481529060010190602001808311610a1057829003601f168201915b5050505050908060050160009054906101000a900460ff16908060050160019054906101000a900473ffffffffffffffffffffffffffffffffffffffff1690806006015490806007015490806008015490508a565b600360009054906101000a900473ffffffffffffffffffffffffffffffffffffffff1681565b600080905060008751111515610abd57600080fd5b60008651111515610acd57600080fd5b60008551111515610add57600080fd5b600082111515610aec57600080fd5b600580811115610af857fe5b836005811115610b0457fe5b11151515610b7a576040517f08c379a00000000000000000000000000000000000000000000000000000000081526004018080602001828103825260108152602001807f496e76616c69642063617465676f72790000000000000000000000000000000081525060200191505060405180910390fd5b600360009054906101000a900473ffffffffffffffffffffffffffffffffffffffff1673ffffffffffffffffffffffffffffffffffffffff16637c56b798336040518263ffffffff167c0100000000000000000000000000000000000000000000000000000000028152600401808273ffffffffffffffffffffffffffffffffffffffff1673ffffffffffffffffffffffffffffffffffffffff168152602001915050600060405180830381600087803b158015610c3757600080fd5b505af1158015610c4b573d6000803e3d6000fd5b505050506000429050600160008154809291906001019190505550610140604051908101604052806001548152602001898152602001888152602001878152602001868152602001856005811115610c9f57fe5b81526020013373ffffffffffffffffffffffffffffffffffffffff16815260200184815260200183815260200182815250600260006001548152602001908152602001600020600082015181600001556020820151816001019080519060200190610d0b92919061212c565b506040820151816002019080519060200190610d2892919061212c565b506060820151816003019080519060200190610d4592919061212c565b506080820151816004019080519060200190610d6292919061212c565b5060a08201518160050160006101000a81548160ff02191690836005811115610d8757fe5b021790555060c08201518160050160016101000a81548173ffffffffffffffffffffffffffffffffffffffff021916908373ffffffffffffffffffffffffffffffffffffffff16021790555060e08201518160060155610100820151816007015561012082015181600801559050507f0ab5bee7fe896b60713e3bca06df8a641aaf3ba7d0c208e416f8fc9b324e74806001548989898989338a8a8a604051808b8152602001806020018060200180602001806020018a6005811115610e4957fe5b60ff1681526020018973ffffffffffffffffffffffffffffffffffffffff1673ffffffffffffffffffffffffffffffffffffffff16815260200188815260200187815260200186815260200185810385528e818151815260200191508051906020019080838360005b83811015610ecd578082015181840152602081019050610eb2565b50505050905090810190601f168015610efa5780820380516001836020036101000a031916815260200191505b5085810384528d818151815260200191508051906020019080838360005b83811015610f33578082015181840152602081019050610f18565b50505050905090810190601f168015610f605780820380516001836020036101000a031916815260200191505b5085810383528c818151815260200191508051906020019080838360005b83811015610f99578082015181840152602081019050610f7e565b50505050905090810190601f168015610fc65780820380516001836020036101000a031916815260200191505b5085810382528b818151815260200191508051906020019080838360005b83811015610fff578082015181840152602081019050610fe4565b50505050905090810190601f16801561102c5780820380516001836020036101000a031916815260200191505b509e50505050505050505050505050505060405180910390a15050505050505050565b6110576121ac565b60026000838152602001908152602001600020610140604051908101604052908160008201548152602001600182018054600181600116156101000203166002900480601f01602080910402602001604051908101604052809291908181526020018280546001816001161561010002031660029004801561111a5780601f106110ef5761010080835404028352916020019161111a565b820191906000526020600020905b8154815290600101906020018083116110fd57829003601f168201915b50505050508152602001600282018054600181600116156101000203166002900480601f0160208091040260200160405190810160405280929190818152602001828054600181600116156101000203166002900480156111bc5780601f10611191576101008083540402835291602001916111bc565b820191906000526020600020905b81548152906001019060200180831161119f57829003601f168201915b50505050508152602001600382018054600181600116156101000203166002900480601f01602080910402602001604051908101604052809291908181526020018280546001816001161561010002031660029004801561125e5780601f106112335761010080835404028352916020019161125e565b820191906000526020600020905b81548152906001019060200180831161124157829003601f168201915b50505050508152602001600482018054600181600116156101000203166002900480601f0160208091040260200160405190810160405280929190818152602001828054600181600116156101000203166002900480156113005780601f106112d557610100808354040283529160200191611300565b820191906000526020600020905b8154815290600101906020018083116112e357829003601f168201915b505050505081526020016005820160009054906101000a900460ff16600581111561132757fe5b600581111561133257fe5b81526020016005820160019054906101000a900473ffffffffffffffffffffffffffffffffffffffff1673ffffffffffffffffffffffffffffffffffffffff1673ffffffffffffffffffffffffffffffffffffffff1681526020016006820154815260200160078201548152602001600882015481525050905060008160c001519050600082600001511180156113cf5750600154826000015111155b15156113da57600080fd5b3373ffffffffffffffffffffffffffffffffffffffff168173ffffffffffffffffffffffffffffffffffffffff1614151561141457600080fd5b60148260e0015181151561142457fe5b0482610100015110151561143757600080fd5b600360009054906101000a900473ffffffffffffffffffffffffffffffffffffffff1673ffffffffffffffffffffffffffffffffffffffff1663499095ed336040518263ffffffff167c0100000000000000000000000000000000000000000000000000000000028152600401808273ffffffffffffffffffffffffffffffffffffffff1673ffffffffffffffffffffffffffffffffffffffff168152602001915050600060405180830381600087803b1580156114f457600080fd5b505af1158015611508573d6000803e3d6000fd5b50505050600260008481526020019081526020016000206000808201600090556001820160006115389190612221565b6002820160006115489190612221565b6003820160006115589190612221565b6004820160006115689190612221565b6005820160006101000a81549060ff02191690556005820160016101000a81549073ffffffffffffffffffffffffffffffffffffffff021916905560068201600090556007820160009055600882016000905550507f2718dec0fba9532d37326c4c9505efa404ca942a0e119c2c389dc62a84fefcdc60015483602001518460400151856060015186608001518760a00151878960e001518a61010001518b6101200151604051808b8152602001806020018060200180602001806020018a600581111561163257fe5b60ff1681526020018973ffffffffffffffffffffffffffffffffffffffff1673ffffffffffffffffffffffffffffffffffffffff16815260200188815260200187815260200186815260200185810385528e818151815260200191508051906020019080838360005b838110156116b657808201518184015260208101905061169b565b50505050905090810190601f1680156116e35780820380516001836020036101000a031916815260200191505b5085810384528d818151815260200191508051906020019080838360005b8381101561171c578082015181840152602081019050611701565b50505050905090810190601f1680156117495780820380516001836020036101000a031916815260200191505b5085810383528c818151815260200191508051906020019080838360005b83811015611782578082015181840152602081019050611767565b50505050905090810190601f1680156117af5780820380516001836020036101000a031916815260200191505b5085810382528b818151815260200191508051906020019080838360005b838110156117e85780820151818401526020810190506117cd565b50505050905090810190601f1680156118155780820380516001836020036101000a031916815260200191505b509e50505050505050505050505050505060405180910390a1505050565b61183b6121ac565b60026000838152602001908152602001600020610140604051908101604052908160008201548152602001600182018054600181600116156101000203166002900480601f0160208091040260200160405190810160405280929190818152602001828054600181600116156101000203166002900480156118fe5780601f106118d3576101008083540402835291602001916118fe565b820191906000526020600020905b8154815290600101906020018083116118e157829003601f168201915b50505050508152602001600282018054600181600116156101000203166002900480601f0160208091040260200160405190810160405280929190818152602001828054600181600116156101000203166002900480156119a05780601f10611975576101008083540402835291602001916119a0565b820191906000526020600020905b81548152906001019060200180831161198357829003601f168201915b50505050508152602001600382018054600181600116156101000203166002900480601f016020809104026020016040519081016040528092919081815260200182805460018160011615610100020316600290048015611a425780601f10611a1757610100808354040283529160200191611a42565b820191906000526020600020905b815481529060010190602001808311611a2557829003601f168201915b50505050508152602001600482018054600181600116156101000203166002900480601f016020809104026020016040519081016040528092919081815260200182805460018160011615610100020316600290048015611ae45780601f10611ab957610100808354040283529160200191611ae4565b820191906000526020600020905b815481529060010190602001808311611ac757829003601f168201915b505050505081526020016005820160009054906101000a900460ff166005811115611b0b57fe5b6005811115611b1657fe5b81526020016005820160019054906101000a900473ffffffffffffffffffffffffffffffffffffffff1673ffffffffffffffffffffffffffffffffffffffff1673ffffffffffffffffffffffffffffffffffffffff1681526020016006820154815260200160078201548152602001600882015481525050905060008160c00151905060008260000151118015611bb35750600154826000015111155b1515611bbe57600080fd5b3373ffffffffffffffffffffffffffffffffffffffff168173ffffffffffffffffffffffffffffffffffffffff1614151515611bf957600080fd5b600034111515611c0857600080fd5b8160e00151826101000151340111151515611c2257600080fd5b3482610100018181510191508181525050600360009054906101000a900473ffffffffffffffffffffffffffffffffffffffff1673ffffffffffffffffffffffffffffffffffffffff1663c7c7a9cf3383346040518463ffffffff167c0100000000000000000000000000000000000000000000000000000000028152600401808473ffffffffffffffffffffffffffffffffffffffff1673ffffffffffffffffffffffffffffffffffffffff1681526020018373ffffffffffffffffffffffffffffffffffffffff1673ffffffffffffffffffffffffffffffffffffffff1681526020018281526020019350505050600060405180830381600087803b158015611d2c57600080fd5b505af1158015611d40573d6000803e3d6000fd5b505050508160026000858152602001908152602001600020600082015181600001556020820151816001019080519060200190611d7e92919061212c565b506040820151816002019080519060200190611d9b92919061212c565b506060820151816003019080519060200190611db892919061212c565b506080820151816004019080519060200190611dd592919061212c565b5060a08201518160050160006101000a81548160ff02191690836005811115611dfa57fe5b021790555060c08201518160050160016101000a81548173ffffffffffffffffffffffffffffffffffffffff021916908373ffffffffffffffffffffffffffffffffffffffff16021790555060e08201518160060155610100820151816007015561012082015181600801559050508073ffffffffffffffffffffffffffffffffffffffff166108fc349081150290604051600060405180830381858888f19350505050158015611eaf573d6000803e3d6000fd5b507f1217f883fb0918dbeb870c0cdf3df605f32ba4876f1ab9674d5b58dfe6a77e0660015483602001518460400151856060015186608001518760a00151878960e001518a61010001518b6101200151604051808b8152602001806020018060200180602001806020018a6005811115611f2557fe5b60ff1681526020018973ffffffffffffffffffffffffffffffffffffffff1673ffffffffffffffffffffffffffffffffffffffff16815260200188815260200187815260200186815260200185810385528e818151815260200191508051906020019080838360005b83811015611fa9578082015181840152602081019050611f8e565b50505050905090810190601f168015611fd65780820380516001836020036101000a031916815260200191505b5085810384528d818151815260200191508051906020019080838360005b8381101561200f578082015181840152602081019050611ff4565b50505050905090810190601f16801561203c5780820380516001836020036101000a031916815260200191505b5085810383528c818151815260200191508051906020019080838360005b8381101561207557808201518184015260208101905061205a565b50505050905090810190601f1680156120a25780820380516001836020036101000a031916815260200191505b5085810382528b818151815260200191508051906020019080838360005b838110156120db5780820151818401526020810190506120c0565b50505050905090810190601f1680156121085780820380516001836020036101000a031916815260200191505b509e50505050505050505050505050505060405180910390a1505050565b60015481565b828054600181600116156101000203166002900490600052602060002090601f016020900481019282601f1061216d57805160ff191683800117855561219b565b8280016001018555821561219b579182015b8281111561219a57825182559160200191906001019061217f565b5b5090506121a89190612269565b5090565b610140604051908101604052806000815260200160608152602001606081526020016060815260200160608152602001600060058111156121e957fe5b8152602001600073ffffffffffffffffffffffffffffffffffffffff1681526020016000815260200160008152602001600081525090565b50805460018160011615610100020316600290046000825580601f106122475750612266565b601f0160209004906000526020600020908101906122659190612269565b5b50565b61228b91905b8082111561228757600081600090555060010161226f565b5090565b9056fea165627a7a7230582025f9f4469602022fe7b317ea569da2da1dbd14ca778c49d1677c5e89096593350029",
  "source": "pragma solidity >=0.4.21 <0.6.0;\r\nimport \"./Users.sol\";\r\n\r\n\r\ncontract Fundraising {\r\n    string public name;\r\n    uint public projectNum = 0;\r\n\r\n    mapping (uint => Project) public projects;\r\n\r\n    Users public usersContract;\r\n\r\n    constructor(address _usersContractAddress) public {\r\n        usersContract = Users(_usersContractAddress);\r\n        name = \"Fundraising in Blockchain\";\r\n    }\r\n\r\n    enum Category { Other, Technology, Health, Environment, Education, Art }\r\n\r\n    struct Project {\r\n        uint id;\r\n        string title;\r\n        string excerpt;\r\n        string body;\r\n        string slug;\r\n        Category category;  \r\n        address payable creator;\r\n        uint targetAmount;\r\n        uint amountRaised;\r\n        uint createdAt;\r\n    }\r\n\r\n    event projectCreated(\r\n        uint id,\r\n        string title,\r\n        string excerpt,\r\n        string body,\r\n        string slug,\r\n        Category category,\r\n        address payable creator,\r\n        uint targetAmount,\r\n        uint amountRaised,\r\n        uint createdAt\r\n    );\r\n\r\n    event projectDonated(\r\n        uint id,\r\n        string title,\r\n        string excerpt,\r\n        string body,\r\n        string slug,\r\n        Category category,\r\n        address payable creator,\r\n        uint targetAmount,\r\n        uint amountRaised,        \r\n        uint createdAt\r\n    );\r\n\r\n    event projectDeleted(\r\n        uint id,\r\n        string title,\r\n        string excerpt,\r\n        string body,\r\n        string slug,\r\n        Category category,\r\n        address payable creator,\r\n        uint targetAmount,\r\n        uint amountRaised,\r\n        uint createdAt\r\n    );\r\n\r\n    function createProject(string memory _title, string memory _excerpt, string memory _body, string memory _slug, Category _category, uint _targetAmount) public {\r\n        uint _amountRaised = 0;\r\n        require(bytes(_title).length > 0);\r\n        require(bytes(_excerpt).length > 0);\r\n        require(bytes(_body).length > 0);\r\n        require(_targetAmount > 0);\r\n        require(_category <= Category.Art, \"Invalid category\");\r\n\r\n\r\n        // Add any additional requirements for the category here\r\n\r\n\r\n        // add to the number of projects the user created and modify in Users contract\r\n        usersContract.addProject(msg.sender);\r\n\r\n        uint _createdAt = block.timestamp;\r\n\r\n        projectNum++;\r\n        projects[projectNum] = Project(projectNum, _title, _excerpt, _body, _slug, _category, msg.sender, _targetAmount, _amountRaised, _createdAt);\r\n        emit projectCreated(projectNum, _title, _excerpt, _body, _slug, _category, msg.sender, _targetAmount, _amountRaised, _createdAt);\r\n    }\r\n\r\n    function donateProject(uint _id) public payable { // we make it payable to be able to make transactions\r\n        Project memory _project = projects[_id];\r\n\r\n        address payable _fundraiser = _project.creator;\r\n\r\n        // add here requirements to check validity\r\n\r\n        require(_project.id > 0 && _project.id <= projectNum);\r\n\r\n        require(_fundraiser != msg.sender); // prevent self donation\r\n\r\n        require(msg.value > 0); // the donation amount must be above zero\r\n\r\n        require(msg.value + _project.amountRaised <= _project.targetAmount); // the donation amount must not exceed the target amount\r\n\r\n\r\n        _project.amountRaised += msg.value;\r\n        \r\n        // // update the number of donations and total donations made by the user\r\n        usersContract.addDonation(msg.sender, address(_fundraiser), msg.value);\r\n        \r\n        \r\n        projects[_id] = _project; // update the project\r\n\r\n        address(_fundraiser).transfer(msg.value); // transfer the amount to the fundraiser\r\n\r\n\r\n        \r\n        emit projectDonated(projectNum, _project.title, _project.excerpt, _project.body, _project.slug, _project.category, _fundraiser, _project.targetAmount, _project.amountRaised, _project.createdAt);  \r\n\r\n    }\r\n\r\n    function deleteProject(uint _id) public {\r\n        Project memory _project = projects[_id];\r\n\r\n        address payable _fundraiser = _project.creator;\r\n\r\n        require(_project.id > 0 && _project.id <= projectNum); // Check if the project ID is valid\r\n        require(_fundraiser == msg.sender); // Only the project creator can delete the project\r\n        require(_project.amountRaised < _project.targetAmount / 20); // Check if less than 5% of the target amount has been raised\r\n\r\n        usersContract.deletedProject(msg.sender);\r\n\r\n        // Delete the project from the mapping\r\n        delete projects[_id];\r\n\r\n        emit projectDeleted(projectNum, _project.title, _project.excerpt, _project.body, _project.slug, _project.category, _fundraiser, _project.targetAmount, _project.amountRaised, _project.createdAt);\r\n    }\r\n\r\n}\r\n",
  "sourcePath": "C:/Users/elvin/Blockchain app/SDP - latest/latest-proj-main/latest-proj-main/fundraising/src/contracts/Fundraising.sol",
  "compiler": {
    "name": "solc",
    "version": "0.5.0+commit.1d4f565a.Emscripten.clang"
  },
  "schemaVersion": "3.0.2",
  "updatedAt": "2023-04-16T13:14:05.621Z",
  "devdoc": {
    "methods": {}
  },
  "userdoc": {
    "methods": {}
  }
}