{
  "contractName": "Users",
  "abi": [
    {
      "constant": true,
      "inputs": [],
      "name": "className",
      "outputs": [
        {
          "name": "",
          "type": "string"
        }
      ],
      "payable": false,
      "stateMutability": "view",
      "type": "function",
      "signature": "0x00c51f8c"
    },
    {
      "constant": true,
      "inputs": [
        {
          "name": "",
          "type": "address"
        }
      ],
      "name": "users",
      "outputs": [
        {
          "name": "userAddress",
          "type": "address"
        },
        {
          "name": "name",
          "type": "string"
        },
        {
          "name": "surname",
          "type": "string"
        },
        {
          "name": "username",
          "type": "string"
        },
        {
          "name": "email",
          "type": "string"
        },
        {
          "name": "passwordHash",
          "type": "bytes32"
        },
        {
          "name": "numDonations",
          "type": "uint256"
        },
        {
          "name": "numProjects",
          "type": "uint256"
        },
        {
          "name": "totalDonationsFunded",
          "type": "uint256"
        },
        {
          "name": "totalDonationsReceived",
          "type": "uint256"
        }
      ],
      "payable": false,
      "stateMutability": "view",
      "type": "function",
      "signature": "0xa87430ba"
    },
    {
      "constant": true,
      "inputs": [],
      "name": "userNum",
      "outputs": [
        {
          "name": "",
          "type": "uint256"
        }
      ],
      "payable": false,
      "stateMutability": "view",
      "type": "function",
      "signature": "0xbbfc5d6e"
    },
    {
      "inputs": [],
      "payable": false,
      "stateMutability": "nonpayable",
      "type": "constructor",
      "signature": "constructor"
    },
    {
      "anonymous": false,
      "inputs": [
        {
          "indexed": false,
          "name": "userAddress",
          "type": "address"
        },
        {
          "indexed": false,
          "name": "name",
          "type": "string"
        },
        {
          "indexed": false,
          "name": "surname",
          "type": "string"
        },
        {
          "indexed": false,
          "name": "username",
          "type": "string"
        },
        {
          "indexed": false,
          "name": "email",
          "type": "string"
        },
        {
          "indexed": false,
          "name": "passwordHash",
          "type": "bytes32"
        }
      ],
      "name": "userCreated",
      "type": "event",
      "signature": "0x148f091b36973e05d16dc0c1dce6b918a106f5691fa847b2bfaa3ca98a7f8b41"
    },
    {
      "constant": false,
      "inputs": [
        {
          "name": "_name",
          "type": "string"
        },
        {
          "name": "_surname",
          "type": "string"
        },
        {
          "name": "_username",
          "type": "string"
        },
        {
          "name": "_email",
          "type": "string"
        },
        {
          "name": "_passwordHash",
          "type": "bytes32"
        }
      ],
      "name": "createUser",
      "outputs": [],
      "payable": false,
      "stateMutability": "nonpayable",
      "type": "function",
      "signature": "0x5cd78d0e"
    },
    {
      "constant": true,
      "inputs": [
        {
          "name": "_username",
          "type": "string"
        },
        {
          "name": "_passwordHash",
          "type": "bytes32"
        }
      ],
      "name": "loginUser",
      "outputs": [
        {
          "name": "",
          "type": "bool"
        }
      ],
      "payable": false,
      "stateMutability": "view",
      "type": "function",
      "signature": "0x380eeece"
    },
    {
      "constant": false,
      "inputs": [
        {
          "name": "_userAddressDonor",
          "type": "address"
        },
        {
          "name": "_userAddressFundraiser",
          "type": "address"
        },
        {
          "name": "_amount",
          "type": "uint256"
        }
      ],
      "name": "addDonation",
      "outputs": [],
      "payable": false,
      "stateMutability": "nonpayable",
      "type": "function",
      "signature": "0xc7c7a9cf"
    },
    {
      "constant": false,
      "inputs": [
        {
          "name": "_userAddressCreator",
          "type": "address"
        }
      ],
      "name": "addProject",
      "outputs": [],
      "payable": false,
      "stateMutability": "nonpayable",
      "type": "function",
      "signature": "0x7c56b798"
    },
    {
      "constant": false,
      "inputs": [
        {
          "name": "_userAddressCreator",
          "type": "address"
        }
      ],
      "name": "deletedProject",
      "outputs": [],
      "payable": false,
      "stateMutability": "nonpayable",
      "type": "function",
      "signature": "0x499095ed"
    }
  ],
  "bytecode": "0x608060405260006001553480156200001657600080fd5b506040805190810160405280600e81526020017f5573657273204372656174696f6e00000000000000000000000000000000000081525060009080519060200190620000649291906200006b565b506200011a565b828054600181600116156101000203166002900490600052602060002090601f016020900481019282601f10620000ae57805160ff1916838001178555620000df565b82800160010185558215620000df579182015b82811115620000de578251825591602001919060010190620000c1565b5b509050620000ee9190620000f2565b5090565b6200011791905b8082111562000113576000816000905550600101620000f9565b5090565b90565b6117d3806200012a6000396000f3fe60806040526004361061008d576000357c0100000000000000000000000000000000000000000000000000000000900463ffffffff168062c51f8c14610092578063380eeece14610122578063499095ed1461020c5780635cd78d0e1461025d5780637c56b798146104f4578063a87430ba14610545578063bbfc5d6e146107a9578063c7c7a9cf146107d4575b600080fd5b34801561009e57600080fd5b506100a761084f565b6040518080602001828103825283818151815260200191508051906020019080838360005b838110156100e75780820151818401526020810190506100cc565b50505050905090810190601f1680156101145780820380516001836020036101000a031916815260200191505b509250505060405180910390f35b34801561012e57600080fd5b506101f26004803603604081101561014557600080fd5b810190808035906020019064010000000081111561016257600080fd5b82018360208201111561017457600080fd5b8035906020019184600183028401116401000000008311171561019657600080fd5b91908080601f016020809104026020016040519081016040528093929190818152602001838380828437600081840152601f19601f820116905080830192505050505050509192919290803590602001909291905050506108ed565b604051808215151515815260200191505060405180910390f35b34801561021857600080fd5b5061025b6004803603602081101561022f57600080fd5b81019080803573ffffffffffffffffffffffffffffffffffffffff169060200190929190505050610aaa565b005b34801561026957600080fd5b506104f2600480360360a081101561028057600080fd5b810190808035906020019064010000000081111561029d57600080fd5b8201836020820111156102af57600080fd5b803590602001918460018302840111640100000000831117156102d157600080fd5b91908080601f016020809104026020016040519081016040528093929190818152602001838380828437600081840152601f19601f8201169050808301925050505050505091929192908035906020019064010000000081111561033457600080fd5b82018360208201111561034657600080fd5b8035906020019184600183028401116401000000008311171561036857600080fd5b91908080601f016020809104026020016040519081016040528093929190818152602001838380828437600081840152601f19601f820116905080830192505050505050509192919290803590602001906401000000008111156103cb57600080fd5b8201836020820111156103dd57600080fd5b803590602001918460018302840111640100000000831117156103ff57600080fd5b91908080601f016020809104026020016040519081016040528093929190818152602001838380828437600081840152601f19601f8201169050808301925050505050505091929192908035906020019064010000000081111561046257600080fd5b82018360208201111561047457600080fd5b8035906020019184600183028401116401000000008311171561049657600080fd5b91908080601f016020809104026020016040519081016040528093929190818152602001838380828437600081840152601f19601f82011690508083019250505050505050919291929080359060200190929190505050610b00565b005b34801561050057600080fd5b506105436004803603602081101561051757600080fd5b81019080803573ffffffffffffffffffffffffffffffffffffffff1690602001909291905050506112dc565b005b34801561055157600080fd5b506105946004803603602081101561056857600080fd5b81019080803573ffffffffffffffffffffffffffffffffffffffff169060200190929190505050611331565b604051808b73ffffffffffffffffffffffffffffffffffffffff1673ffffffffffffffffffffffffffffffffffffffff168152602001806020018060200180602001806020018a815260200189815260200188815260200187815260200186815260200185810385528e818151815260200191508051906020019080838360005b83811015610630578082015181840152602081019050610615565b50505050905090810190601f16801561065d5780820380516001836020036101000a031916815260200191505b5085810384528d818151815260200191508051906020019080838360005b8381101561069657808201518184015260208101905061067b565b50505050905090810190601f1680156106c35780820380516001836020036101000a031916815260200191505b5085810383528c818151815260200191508051906020019080838360005b838110156106fc5780820151818401526020810190506106e1565b50505050905090810190601f1680156107295780820380516001836020036101000a031916815260200191505b5085810382528b818151815260200191508051906020019080838360005b83811015610762578082015181840152602081019050610747565b50505050905090810190601f16801561078f5780820380516001836020036101000a031916815260200191505b509e50505050505050505050505050505060405180910390f35b3480156107b557600080fd5b506107be611605565b6040518082815260200191505060405180910390f35b3480156107e057600080fd5b5061084d600480360360608110156107f757600080fd5b81019080803573ffffffffffffffffffffffffffffffffffffffff169060200190929190803573ffffffffffffffffffffffffffffffffffffffff1690602001909291908035906020019092919050505061160b565b005b60008054600181600116156101000203166002900480601f0160208091040260200160405190810160405280929190818152602001828054600181600116156101000203166002900480156108e55780601f106108ba576101008083540402835291602001916108e5565b820191906000526020600020905b8154815290600101906020018083116108c857829003601f168201915b505050505081565b60006003836040518082805190602001908083835b6020831015156109275780518252602082019150602081019050602083039250610902565b6001836020036101000a038019825116818451168082178552505050505050905001915050908152602001604051809103902060009054906101000a900460ff1615156109dc576040517f08c379a00000000000000000000000000000000000000000000000000000000081526004018080602001828103825260178152602001807f557365726e616d6520646f6573206e6f7420657869737400000000000000000081525060200191505060405180910390fd5b6000600260003373ffffffffffffffffffffffffffffffffffffffff1673ffffffffffffffffffffffffffffffffffffffff16815260200190815260200160002060000160009054906101000a900473ffffffffffffffffffffffffffffffffffffffff1690506000600260008373ffffffffffffffffffffffffffffffffffffffff1673ffffffffffffffffffffffffffffffffffffffff16815260200190815260200160002060050154905083811415610a9d57600192505050610aa4565b6000925050505b92915050565b600260008273ffffffffffffffffffffffffffffffffffffffff1673ffffffffffffffffffffffffffffffffffffffff168152602001908152602001600020600701600081548092919060019003919050555050565b600073ffffffffffffffffffffffffffffffffffffffff16600260003373ffffffffffffffffffffffffffffffffffffffff1673ffffffffffffffffffffffffffffffffffffffff16815260200190815260200160002060000160009054906101000a900473ffffffffffffffffffffffffffffffffffffffff1673ffffffffffffffffffffffffffffffffffffffff16141515610c2c576040517f08c379a00000000000000000000000000000000000000000000000000000000081526004018080602001828103825260248152602001807f54686973206164647265737320616c72656164792068617320616e206163636f81526020017f756e74210000000000000000000000000000000000000000000000000000000081525060400191505060405180910390fd5b6003836040518082805190602001908083835b602083101515610c645780518252602082019150602081019050602083039250610c3f565b6001836020036101000a038019825116818451168082178552505050505050905001915050908152602001604051809103902060009054906101000a900460ff16151515610d1a576040517f08c379a00000000000000000000000000000000000000000000000000000000081526004018080602001828103825260178152602001807f557365726e616d6520616c72656164792065786973747300000000000000000081525060200191505060405180910390fd5b6004826040518082805190602001908083835b602083101515610d525780518252602082019150602081019050602083039250610d2d565b6001836020036101000a038019825116818451168082178552505050505050905001915050908152602001604051809103902060009054906101000a900460ff16151515610e08576040517f08c379a00000000000000000000000000000000000000000000000000000000081526004018080602001828103825260138152602001807f456d61696c20616c72656164792074616b656e0000000000000000000000000081525060200191505060405180910390fd5b6000809050600080905060008090506000809050610140604051908101604052803373ffffffffffffffffffffffffffffffffffffffff1681526020018a815260200189815260200188815260200187815260200186815260200185815260200184815260200183815260200182815250600260003373ffffffffffffffffffffffffffffffffffffffff1673ffffffffffffffffffffffffffffffffffffffff16815260200190815260200160002060008201518160000160006101000a81548173ffffffffffffffffffffffffffffffffffffffff021916908373ffffffffffffffffffffffffffffffffffffffff1602179055506020820151816001019080519060200190610f1b929190611702565b506040820151816002019080519060200190610f38929190611702565b506060820151816003019080519060200190610f55929190611702565b506080820151816004019080519060200190610f72929190611702565b5060a0820151816005015560c0820151816006015560e082015181600701556101008201518160080155610120820151816009015590505060016003886040518082805190602001908083835b602083101515610fe45780518252602082019150602081019050602083039250610fbf565b6001836020036101000a038019825116818451168082178552505050505050905001915050908152602001604051809103902060006101000a81548160ff02191690831515021790555060016004876040518082805190602001908083835b6020831015156110685780518252602082019150602081019050602083039250611043565b6001836020036101000a038019825116818451168082178552505050505050905001915050908152602001604051809103902060006101000a81548160ff0219169083151502179055507f148f091b36973e05d16dc0c1dce6b918a106f5691fa847b2bfaa3ca98a7f8b41338a8a8a8a8a604051808773ffffffffffffffffffffffffffffffffffffffff1673ffffffffffffffffffffffffffffffffffffffff1681526020018060200180602001806020018060200186815260200185810385528a818151815260200191508051906020019080838360005b8381101561115d578082015181840152602081019050611142565b50505050905090810190601f16801561118a5780820380516001836020036101000a031916815260200191505b50858103845289818151815260200191508051906020019080838360005b838110156111c35780820151818401526020810190506111a8565b50505050905090810190601f1680156111f05780820380516001836020036101000a031916815260200191505b50858103835288818151815260200191508051906020019080838360005b8381101561122957808201518184015260208101905061120e565b50505050905090810190601f1680156112565780820380516001836020036101000a031916815260200191505b50858103825287818151815260200191508051906020019080838360005b8381101561128f578082015181840152602081019050611274565b50505050905090810190601f1680156112bc5780820380516001836020036101000a031916815260200191505b509a505050505050505050505060405180910390a1505050505050505050565b600260008273ffffffffffffffffffffffffffffffffffffffff1673ffffffffffffffffffffffffffffffffffffffff1681526020019081526020016000206007016000815480929190600101919050555050565b60026020528060005260406000206000915090508060000160009054906101000a900473ffffffffffffffffffffffffffffffffffffffff1690806001018054600181600116156101000203166002900480601f0160208091040260200160405190810160405280929190818152602001828054600181600116156101000203166002900480156114035780601f106113d857610100808354040283529160200191611403565b820191906000526020600020905b8154815290600101906020018083116113e657829003601f168201915b505050505090806002018054600181600116156101000203166002900480601f0160208091040260200160405190810160405280929190818152602001828054600181600116156101000203166002900480156114a15780601f10611476576101008083540402835291602001916114a1565b820191906000526020600020905b81548152906001019060200180831161148457829003601f168201915b505050505090806003018054600181600116156101000203166002900480601f01602080910402602001604051908101604052809291908181526020018280546001816001161561010002031660029004801561153f5780601f106115145761010080835404028352916020019161153f565b820191906000526020600020905b81548152906001019060200180831161152257829003601f168201915b505050505090806004018054600181600116156101000203166002900480601f0160208091040260200160405190810160405280929190818152602001828054600181600116156101000203166002900480156115dd5780601f106115b2576101008083540402835291602001916115dd565b820191906000526020600020905b8154815290600101906020018083116115c057829003601f168201915b505050505090806005015490806006015490806007015490806008015490806009015490508a565b60015481565b600260008473ffffffffffffffffffffffffffffffffffffffff1673ffffffffffffffffffffffffffffffffffffffff1681526020019081526020016000206006016000815480929190600101919050555080600260008573ffffffffffffffffffffffffffffffffffffffff1673ffffffffffffffffffffffffffffffffffffffff1681526020019081526020016000206008016000828254019250508190555080600260008473ffffffffffffffffffffffffffffffffffffffff1673ffffffffffffffffffffffffffffffffffffffff16815260200190815260200160002060090160008282540192505081905550505050565b828054600181600116156101000203166002900490600052602060002090601f016020900481019282601f1061174357805160ff1916838001178555611771565b82800160010185558215611771579182015b82811115611770578251825591602001919060010190611755565b5b50905061177e9190611782565b5090565b6117a491905b808211156117a0576000816000905550600101611788565b5090565b9056fea165627a7a723058204aad37b9426ebf3faccbd5ae3c631b6f6fbc7e26396e09d53bb62db2dd2dfe090029",
  "source": "pragma solidity >=0.4.21 <0.6.0;\n\ncontract Users {\n    string public className;\n    uint public userNum = 0;\n\n    mapping(address => User) public users;\n    mapping(string => bool) private usernameExists;\n    mapping(string => bool) private emailExists;\n\n\n    struct User {\n        address userAddress;\n        string name;\n        string surname;\n        string username;\n        string email;\n        bytes32 passwordHash;\n        uint numDonations;\n        uint numProjects;\n        uint totalDonationsFunded;\n        uint totalDonationsReceived;\n    }\n\n    event userCreated(\n        address userAddress,\n        string name,\n        string surname,\n        string username,\n        string email,\n        bytes32 passwordHash\n    );\n\n    constructor () public {\n        className = \"Users Creation\";\n    }\n\n    function createUser(string memory _name, string memory _surname, string memory _username, string memory _email, bytes32 _passwordHash) public {\n        require(users[msg.sender].userAddress == address(0), \"This address already has an account!\");\n        require(!usernameExists[_username], \"Username already exists\");\n        require(!emailExists[_email], \"Email already taken\");\n        // check the password?\n\n        uint _numDonations = 0;\n        uint _numProjects = 0;\n        uint _totalDonationsFunded = 0;\n        uint _totalDonationsReceived = 0;\n\n\n\n        users[msg.sender] = User(msg.sender, _name, _surname, _username, _email, _passwordHash, _numDonations, \n                                                _numProjects, _totalDonationsFunded, _totalDonationsReceived);\n        usernameExists[_username] = true;\n        emailExists[_email] = true;\n\n\n        emit userCreated(msg.sender, _name, _surname, _username, _email, _passwordHash);\n    }\n\n    function loginUser(string memory _username, bytes32 _passwordHash) public view returns(bool) { // marked as view since it does not modify the state of the contract\n        require(usernameExists[_username], \"Username does not exist\");\n        address userAddress = users[msg.sender].userAddress;\n        bytes32 storedPasswordHash = users[userAddress].passwordHash;\n        if (storedPasswordHash == _passwordHash) {\n            return true;\n        } else {\n            return false;\n        }\n    }\n\n    function addDonation(address _userAddressDonor, address _userAddressFundraiser, uint _amount) public {\n        // require(users[_userAddressDonor].userAddress != address(0), \"User does not exist.\");\n        // require(users[_userAddressFundraiser].userAddress != address(0), \"User does not exist.\");\n        users[_userAddressDonor].numDonations++;\n        users[_userAddressDonor].totalDonationsFunded += _amount;\n        users[_userAddressFundraiser].totalDonationsReceived += _amount;\n    }\n\n    function addProject(address _userAddressCreator) public {\n        // require(users[_userAddressCreator].userAddress != address(0), \"User does not exist.\");\n        users[_userAddressCreator].numProjects++;\n    }\n\n    function deletedProject(address _userAddressCreator) public {\n        // require(users[_userAddressCreator].userAddress != address(0), \"User does not exist.\");\n        users[_userAddressCreator].numProjects--;\n    }\n\n\n}",
  "sourcePath": "/Users/shahriyarsadigli/Desktop/fundraising-secure/fundraising/src/contracts/Users.sol",
  "compiler": {
    "name": "solc",
    "version": "0.5.0+commit.1d4f565a.Emscripten.clang"
  },
  "schemaVersion": "3.0.2",
  "updatedAt": "2023-04-18T14:39:38.426Z",
  "devdoc": {
    "methods": {}
  },
  "userdoc": {
    "methods": {}
  }
}